:020000040800F2
:10000000D007002095020008D1200008311E00080A
:10001000C920000801050008B12100080000000007
:10002000000000000000000000000000E1200008C7
:100030001905000800000000D9200008E920000888
:10004000AF020008AF020008AF020008AF020008CC
:10005000AF020008AF020008AF020008AF020008BC
:10006000AF020008AF020008AF020008AF020008AC
:10007000AF020008AF020008AF020008AF0200089C
:10008000AF020008AF020008D1040008AF02000868
:10009000AF020008AF020008AF020008AF0200087C
:1000A000AF020008AF020008AF020008AF0200086C
:1000B000AF020008AF020008AF020008AF0200085C
:1000C000AF020008AF020008AF020008AF0200084C
:1000D000AF020008AF020008AF020008AF0200083C
:1000E000AF020008AF020008AF020008AF0200082C
:1000F000AF020008AF020008AF020008AF0200081C
:10010000AF020008AF020008AF020008AF0200080B
:10011000AF020008AF020008AF020008AF020008FB
:1001200009050008AF020008AF020008AF0200088E
:10013000AF020008AF020008AF020008AF020008DB
:10014000AF020008AF020008AF020008AF020008CB
:10015000AF020008AF020008AF020008AF020008BB
:10016000AF020008AF020008AF020008AF020008AB
:10017000AF020008AF020008AF0200080000000054
:10018000AF020008AF020008AF020008AF0200088B
:10019000AF020008AF020008AF020008AF0200087B
:1001A0000000000000000000AF020008AF020008DD
:1001B000AF020008AF020008AF020008AF0200085B
:1001C000AF020008AF02000800F002F800F052F899
:1001D00014A696E8000CB244B344DA4501D100F00D
:1001E00049F8BAE80F000FA696E83000A5EB040521
:1001F00004EB0607AAEB0704A7F101074FEA151560
:100200004FEA3414A4F10104AC4201D300F032F8F7
:1002100013F0010F18BFFB1A43F0010300F001F8BF
:10022000DBE718470C3000002C300000103A24BFE8
:1002300078C878C1FAD8520724BF30C830C144BF4B
:1002400004680C6070470000704700000023002421
:1002500000250026103A28BF78C1FBD8520728BFD6
:1002600030C148BF0B6070471FB502F0C2FF1FBD11
:1002700010B510BD00F0A9F81146FFF7F5FF02F028
:1002800013F900F0C7F803B4FFF7F2FF03BC00F066
:10029000CFF800000948804709480047FEE7FEE71D
:1002A000FEE7FEE7FEE7FEE7FEE7FEE7FEE7FEE726
:1002B00004480549054A064B70470000992100088B
:1002C000C9010008D0010020D0070020D003002081
:1002D000D003002053EA020C00F069802DE9F04BB6
:1002E0004FF00006002B1FBFB3FA83F503FA05F4A5
:1002F00024FA05F65E4012BF1643B2FA82F502FAFE
:1003000005F4C5F120051EBF22FA05FC44EA0C04E1
:10031000203556EA044C4FEA144418BF641C4FF0D1
:1003200000084FF00009904271EB030C39D300290B
:1003300019BFB1FA81F701FA07F6B0FA80F700FAAF
:1003400007F6C7F120071EBF20FA07FC46EA0C0695
:100350002037B6FBF4FCA7EB0507103F07F01F0B97
:10036000CBF120062CFA06F60CFA0BFB44BFB34681
:100370000026202FA4BF5E464FF0000B5BEA060C60
:1003800008BF4FF0010B19EB0B0948EB0608ABFB5C
:10039000027C06FB02CC0BFB03CCC01B71EB0C01F7
:1003A000C1E70B46024641464846BDE8F08B13B50F
:1003B000084318BF4FF0FF300146AFF30080BDE89F
:1003C0001C407047704770477047754600F02CF826
:1003D000AE4605006946534620F00700854618B032
:1003E00020B5FFF765FFBDE820404FF000064FF055
:1003F00000074FF000084FF0000BAC46ACE8C00916
:10040000ACE8C009ACE8C009ACE8C00921F00701BC
:100410008D46704710B50446AFF300802046BDE816
:100420001040FFF730BF0000004870471000002068
:1004300001491820ABBEFEE726000200704700000D
:100440000146806B026C12F0500F026C06D0D2068F
:100450000ED4806BC26C0846104700BF42F4007196
:10046000016401688A6812F0405F03D000F040B96F
:1004700000F0D2B98269002AF8D1CA6A12F4700F6A
:1004800002D08A685205F1D44A6822F020024A60FC
:10049000016C21F480710164016CC904E6D4016C23
:1004A00041F00101016400F023B9000000000000E8
:1004B000806B40210164416C41F00401416400F013
:1004C000ABB9000000000000806B00F085B90000AF
:1004D00080B540F29400C2F2000000F0A5F940F2AD
:1004E000DC00C2F2000000F09FF940F22410C2F2DA
:1004F0000000BDE8804000F097B900000000000057
:10050000FEE700000000000040F26C10C2F20000A4
:1005100000F04ABD0000000070470000000000002D
:10052000EFF3108072B600BFFEE70000000000008D
:100530007047000000000000B0B581B000220092BA
:1005400090F83C20012A03D10221084601B0B0BD39
:10055000D1F800E001221FFA8EFC80F83C204FEA1F
:100560004C02BEF10A0F12FA8EF319D3BEF1004FFE
:1005700016D002681E3B07249C40D56825EA040477
:100580001225C1F20005D460AE458D68D46821D132
:1005900044EA0563D3604968062911D921E000BF08
:1005A000026807249C40156925EA040414618C68DC
:1005B00004FA03F31469234313614968062910D828
:1005C00001EB81011F23053903FA01F4134653F8A7
:1005D000345F1AE005FA03F32343D3604968062920
:1005E000EED90C2901EB810108D823391F2303FA26
:1005F00001F4134653F8305F07E000BF41391F2371
:1006000003FA01F4134653F82C5F0CFA01F142F29D
:10061000043CC4F2010C25EA04041C60ACF54174EE
:100620001D68A24241EA0501196058D1BEF1004F90
:1006300006D1DCF8001021F44001CCF800104EE0A7
:10064000BEF1110F12D01221C1F200018E450DD062
:10065000BEF1120F43D1DCF8001021F40001CCF8F8
:100660000010DCF8001041F48001E6E7DCF800102F
:1006700021F48001CCF800101221C1F200018E4556
:10068000DCF8001041F40001CCF8001027D140F252
:1006900008014DF68362C2F20001C4F21B32096800
:1006A000A1FB0212910C01EB8101490002E000BFA5
:1006B000009901390091009989B10099013900919F
:1006C000009961B1009901390091009900291FBF7B
:1006D000009901390091009918BF0029E8D1002143
:1006E00080F83C10084601B0B0BD000000000000DA
:1006F000B0B540F29401C2F20001884220D040F22D
:100700002411C2F20001884218BFB0BD40F224108B
:10071000C2F2000000F084F840F27004C2F200045B
:10072000206202F0F5FA9FED240B53EC102B02F03F
:1007300003FB02F0B9F8206004F10C05082418E06E
:1007400040F29400C2F2000000F06AF840F2700437
:10075000C2F20004A06102F0DBFA9FED170B53EC2C
:10076000102B02F0E9FA02F09FF8606004F1100526
:10077000042402F0CDFC9FED120B53EC102B02F081
:10078000C5F89FED110B53EC102B02F067F99FEDAC
:10079000100B53EC102B02F0B9F802F085F841F27F
:1007A00000410122C4F20201286008462146BDE84A
:1007B000B04000F04DBF00BFB4D934E70C684A3FE9
:1007C000000000000000E0BF7B14AE47E17A843FE8
:1007D00000000000000016C070470000000000008C
:1007E000C0B110B504460068216C41F002012164DB
:1007F000816821F0010181608068C00705D1204631
:1008000000F062F9002060642064002084F83C005D
:1008100010BD00BF012070477047000000000000BD
:100820000068C06C7047000070B504460068066838
:100830004568B10717D515F0200114D0216CC90601
:1008400003D4216C41F400712164816811F0405F90
:1008500002D1A169002969D02046FFF749FF20682D
:100860006FF012010160710714D515F0800111D0ED
:10087000216CC90603D4216C41F4005121648168C4
:1008800011F4401F22D02046FFF752FE20686FF07F
:100890000C010160F10706D015F040011CBF016892
:1008A0005FEAC17134D1B1060FD515F0806108BF80
:1008B00070BD616C6FF0200541F00201616405605C
:1008C0002046FFF7A9FF2068056070BD816B11F419
:1008D000401F02D081684905D5D441684905D2D46A
:1008E000816811F0405FCED1A1690029CBD1416868
:1008F00021F080014160206C20F480502064206C45
:10090000C005C0D4206C40F001002064BBE700BFEC
:10091000206C40F480302064204600F0D1F820683C
:100920006FF001010160B106BFD4CEE7C16A11F4D6
:10093000700F03D0816849053FF58EAF416821F003
:1009400020014160206C20F480702064206CC00481
:100950003FF582AF206C40F0010020647CE700008E
:10096000002843D010B50446006C002840D0206C0D
:10097000C00647D4206C41F20211884342F2043190
:10098000C4F2010102302064086820F4403008609D
:100990000A68D4F810E094E809101A430A60416824
:1009A000012321F4807141604168C0F6007341EA7F
:1009B0000E214160416821F040714160416841EA87
:1009C0000C014160816821F400618160E168826806
:1009D00011438160A16A826822F07062826099424C
:1009E000826815D122F040511BE000BF0120704702
:1009F000204600F0B5F80020606484F83C00206CCC
:100A0000C006B7D50120002184F83C1010BD00BFFE
:100A100011438160816821F040518160E16A826800
:100A200011438160816821F002018160A1698268BF
:100A300042EA4101816094F820100029416811D0F8
:100A400041F40061416041684EF2000221F46041CE
:100A50004160616ACFF6FF7202EB41314268114397
:100A600002E000BF21F4006141600023C16ACFF6BB
:100A7000F07321F47001C162E169626903EB015115
:100A8000C36A1943C162816821F40071816094F8DE
:100A90003010836843EA41218160816821F48061DC
:100AA0008160816841EA8221816000206064216C5C
:100AB000012262F301012164002184F83C1010BD81
:100AC000704700000000000010B542F2002104460B
:100AD0000068C4F2010188421CD042F20011C4F245
:100AE000010188422AD042F20001C4F20101884289
:100AF00018BF10BD43F644020020C4F20202C4F243
:100B000002000121136823F480731360BDE81040D4
:100B100000F046BC43F64400C4F20200016821F430
:100B20008061016000200121C4F2020000F038FC65
:100B3000A06BBDE8104000F0EFB900BF43F64402DF
:100B40000020C4F20202C4F202000121136823F45F
:100B500000731360BDE8104000F022BC00000000EC
:100B600070B586B042F2002104460068C4F201016B
:100B700000268842CDE9046603960296019617D0B6
:100B800042F20011C4F20101884255D042F2000144
:100B9000C4F20101884279D143F63000C4F2020068
:100BA000416941F480714161416901F480714EE015
:100BB00043F63000C4F20200416941F480614161B2
:100BC000416901F4806100910099016841F00101DF
:100BD0000160006801A900F0010000900098012068
:100BE00001900320CDE902060020C4F2020000F0CB
:100BF00057FC40F26C1546F21040C2F20005C4F2F8
:100C0000020028604FF08060C5E901064FF4806063
:100C100028614FF4006068614FF40050EE60C5E950
:100C200006062846C5E9086600F09EFA08B1FFF7F7
:100C300077FCA563AC6321E043F63000C4F2020008
:100C4000416941F400714161416901F40071009111
:100C50000099016841F001010160006801A900F0FC
:100C600001000090009801200190032002900020D4
:100C700003900020C4F2020000F012FC12200021B8
:100C8000002200F061FD122000F04EFD06B070BDA4
:100C9000B0B582B000230193044690F83C000128CF
:100CA00002D1022002B0B0BD96460A46216801205A
:100CB00084F83C008868C00729D188684DF68365B0
:100CC00040F00100886040F20800C4F21B35C2F217
:100CD00000000068A0FB0505A80C00EB400001E047
:100CE000019801380190019888B10198013801906C
:100CF000019860B1019801380190019800281FBF48
:100D0000019801380190019818BF0028E8D188683F
:100D1000C007206C0AD140F010002064606C40F0E5
:100D200001006064002002B0B0BD00BF40F2017558
:100D3000A84300F5807020644868400504D5206C05
:100D4000012565F30D302064206C40F24145C0045C
:100D50004FF0000044BF606C20F0060040F2C94331
:100D6000C0F600056064C0F60003A06B4FF0000CF5
:100D700084F83CC0C0E90F5340F2B14342F2080589
:100D8000C0F60003C3646FF022030B604B68C4F22B
:100D9000010543F080634B608B6843F480738B6084
:100DA0004C31734600F090FAD5F8FC02C00620687A
:100DB0001AD0A5F10801884220D005F5FC718842BF
:100DC000D5F8FC124FF0000008BF11F01001AAD1B5
:100DD000D5F8000210F0405FA4D1D5F8000240F031
:100DE0008040C5F800029DE7816811F0405F99D10D
:100DF000816841F08041816094E700BF286810F06D
:100E0000405F03D1286840F080402860D5F8FC029C
:100E100088E7000000000000B0B5044690F83C00F0
:100E2000012801D10220B0BD2168012084F83C00D6
:100E30000025886820F0010088608868C0074FF0AE
:100E400000001DD1886820F480708860A06B90F845
:100E50003510022908D100F017F828B1216C41F0B3
:100E60004001216401E000BF002021684A6822F0AF
:100E700080624A60216C41F2011291430131216488
:100E800084F83C50B0BD000070B50446866D00F09B
:100E9000E7FB94F83510022928D105462068216C1B
:100EA0000268002922F016020260426922F08001E5
:100EB000416101D1A16C19B1016821F00801016003
:100EC000016821F00101016020680068C00715D0A9
:100ED00000F0C6FB401B0628F6D3202060650320E7
:100EE00084F83500002184F8341070BD80206065DE
:100EF0000120002184F8341070BD00BFE06D3F2157
:100F000001FA00F0B060012084F8350000200021D3
:100F100084F8341070BD000030B1014690F83500FF
:100F2000022803D1022070470120704710B50A68DB
:100F30004AF6AB2C02F0F803CAF6AA2CA3F110046F
:100F40001068A4FB0C3C20F00100106000204FEA68
:100F50001C1343F2262C10604FF0210E5060C0F697
:100F6000000C90605F2CD0604FF03F041061C2F81D
:100F700014E040F2FF3E22EA0E021CF8033088BF64
:100F80000432C1E9162304FA03F39360C1E90F00A8
:100F9000C1E91100C1E91300486581F8350081F805
:100FA000340010BD00000000F0B581B000210091B8
:100FB00040F208010446C2F2000148F2B513D0E93C
:100FC00016600A68C1F64E33082137688140A2FBDB
:100FD000032539420CD0226813685B0708D51368D3
:100FE00023F004031360B160616D41F0010161659C
:100FF00001218140394208D022685269120604D585
:10100000B160616D41F002016165042181403942A6
:1010100008D022681268920704D5B160616D41F072
:101020000401616510218140394217D020680268AF
:10103000120713D5B16001684903016808D4C905D6
:1010400008D4016821F008010160216C21B905E094
:1010500008033FD4216C09B120468847E16D202068
:1010600000FA01F23A4241D020680368DB063DD520
:10107000B26094F83520052A02681BD122F01602CE
:101080000260426922F080024261226C0AB9A26CBD
:101090001AB1026822F0080202603F208840B06066
:1010A000012084F83500216D0020002984F83400E7
:1010B00052D157E05103016810D4C90512D4016818
:1010C00021F010010160012084F83500002084F82F
:1010D000340007E0A16C0029BED1BFE7080301D4AA
:1010E000616C00E0E16B09B120468847606DC8B3D0
:1010F000606DC0072ED0052084F835002068A90A4D
:10110000026822F001020260009A013200928A42D3
:101110001AD80268D20717D0009A013200928A4288
:1011200012D80268D2070FD0009A013200928A4288
:101130000AD80268D20707D0009A013200928A4288
:1011400002D80268D207DFD1012084F835000020E0
:1011500084F83400E16C29B1204601B0BDE8F040CC
:10116000084700BF01B0F0BDF0B581B0044600F003
:1011700077FAECB10546022084F83500002120689A
:1011800084F83410016821F00101016021680868C9
:10119000C00711D000F064FA401B0528F6D90322DD
:1011A00020230320636584F8352001B0F0BD00BF23
:1011B000012001B0F0BD00BF48F23F02251D0868C4
:1011C000CFF2100200EA020620692CCD3243666994
:1011D0001A43E3692A43A7691043226A304318433C
:1011E000636A1043042B40EA07021DD1206BD4E947
:1011F0000A5E40EA0E00BEF1000F40EA02000860FD
:10120000486920F0030040EA050040F0040C11D0CA
:10121000B7F5005F34D0002F44D1022D45D0012D09
:101220003AD03DB941E000BF0A60486920F00700AC
:1012300040EA030C01F0F8004AF6AB221038CAF677
:10124000AA22A0FB022340F2FF32C1F814C091434E
:1012500043F226221B09C0F600025F28D05C4FF043
:101260003F0288BF04310023C4E9161002FA00F0DF
:10127000886001220020636584F8352001B0F0BD4C
:10128000032DD7D8012240230120DFE805F0030E0B
:10129000030500BF86E700BFAEF1C070B0FA80F072
:1012A000400904E0032D04D3C4D1CEF3006000282C
:1012B000C0D0012240230120636584F8352001B0AD
:1012C000F0BD00000000000090F834C0BCF1010F38
:1012D00002D10220704700BF70B54FF0010C80F8BA
:1012E00034C0D0F858E090F835C0BCF1010F3DD1C2
:1012F0004FF0020C80F835C04FF0000CC0F854C01D
:10130000D0F800C08468056CC06DDCF80060402C2B
:1013100026F48026CCF80060CCF804300B4604BFDD
:1013200013460A463F21CCF8083001FA00F0CCF809
:101330000C20CEF80800DCF8000040F01600CCF8D5
:101340000000DCF8140040F08000CCF814002DB14F
:10135000DCF8000040F00800CCF80000DCF80000E9
:1013600040F00100CCF80000002070BD002180F8A2
:101370003410022070BD0000B0B5044600F070F9D2
:1013800040F200010546C2F20001621C097818BF54
:101390000C4400BF00F064F9401BA042FAD3B0BD7A
:1013A0002DE9F04F81B000F13E4242F2004702F1D8
:1013B000FF728305C4F202070A26B84243EA922369
:1013C00008BF0926092B43F6004938BF1E46C4F260
:1013D000010900230096002600274FF00F0E22E09F
:1013E0006FF00304032204EA570405689A4004449A
:1013F0009543056006F01C050EFA05FC256A25EAF2
:101400000C052562C5689543C560456825EA0B054E
:101410004560856825EA0202826001370436102F94
:1014200003F1020338D0012202FA07FB1BEA010C88
:10143000F3D0A9F57E7527F0030206F00C0AAA582E
:101440000EFA0AF8009C02EA080204FA0AF4A24220
:10145000C6D1D9F8002043F60C4422EA0C02C9F8A0
:101460000020D9F80420C4F2010422EA0C02C9F8D1
:101470000420226822EA0C022260BA08D9F8084047
:1014800024EA0C04C9F8084055F8224024EA08046C
:1014900045F82240A4E700BF01B0BDE8F08F00008E
:1014A0002DE9F04F82B000F13E4342F2004603F1D5
:1014B000FF738705C4F202060A22B04247EA932767
:1014C00008BF0922092F4FF0000E38BF3A46012409
:1014D00000270026009206E001360237102E0EF19A
:1014E000040E00F0AF8004FA06FB0D6815EA0B0845
:1014F000F2D0D1F804A003220AF0030CBA40ACF1F8
:1015000001056FEA0209012D10D88268CD6802EA50
:101510000902BD402A438260CAF30015426822EAEC
:101520000B02B5402A43426006E000BFBCF1030F46
:1015300002D14FF0030C22E0C2688D6802EA090272
:10154000BD40BCF1020F42EA0502C26017D16FF044
:1015500003020EF01C0302EA56020F25024405FAAC
:1015600003FAD2F820C00D692CEA0A0C05FA03F33D
:1015700043EA0C031362D1F804A00AF0030C0268DA
:101580000CFA07F302EA09021AF4403F42EA0302A6
:101590000260A1D043F6440343F60049C4F20203BB
:1015A000C4F201094FF6084A0F241A68CFF6FF7AF1
:1015B00042F480421A601A6826F0030302F4804263
:1015C000019209EB0302019B0EF00C0352F80AC0D2
:1015D00004FA03F5009C2CEA050504FA03F32B43F7
:1015E00042F80A30D9F808C04B684CEA0805DA021C
:1015F00058BF2CEA080543F60C4C9C02C4F2010CBF
:10160000C9F80850DCF8002042EA080558BF22EA71
:1016100008059C034FF00104CCF80050D9F80420D1
:1016200042EA080558BF22EA0805DB03C9F804505E
:10163000D9F8002042EA080558BF22EA0805C9F88F
:10164000005049E702B0BDE8F08F00000000000044
:10165000002A08BF090481617047000000000000F3
:1016600040F2CC10C2F20000006870470000000099
:1016700040F2000040F2CC11C2F20000C2F20001C0
:1016800000780A68104408607047000000000000FD
:1016900080B5032000F088F80F2000F005F800F076
:1016A00027F8002080BD000070B540F2000640F22F
:1016B0000801C2F20006C2F200014FF47A73044638
:1016C00032780968B3FBF2F2B1FBF2F1084600F0A0
:1016D00097FB0F2C4FF0010508D838B94FF0FF30B9
:1016E00000222146002500F02FF87460284670BDC6
:1016F00082B043F64000C4F20200016841F080511C
:101700000160016801F0805101910199416841F443
:1017100080414160406800F480400090009802B031
:101720007047000000000000002848BF70471C21DF
:101730004EF2001300F01F0201EAD000CEF20003C7
:1017400001219140C150704770B54EF60C5C4FF0CE
:10175000FF36CEF2000C00F1604505F56445DCF87B
:101760000030C3F3022E8EF00703042B28BF04239E
:10177000BEF1030406FA03F321EA030100F00F03AC
:1017800038BF0024043B0028634406FA04F048BF35
:1017900003F10C05A14022EA000008430001287073
:1017A00070BD0000000000004EF60C514FF6FF0324
:1017B000CEF200010A681A4060F30A2242F080600B
:1017C00040F0FD7008607047B0B582B043F640004D
:1017D00047F20005C4F20200C4F20005016841F0BE
:1017E00080510160006800F08050019001982868E5
:1017F00040F480302860FFF733FF04466868C00378
:1018000006D4FFF72DFF001BB0F57A7FF6D910E064
:10181000286840F400302860FFF722FF044600BF2C
:101820006868800308D4FFF71BFF001BB0F57A7FC0
:10183000F6D9032002B0B0BD002002B0B0BD000058
:1018400000285FD02DE9F04143F608080446C4F2B1
:1018500002080D46D8F8F80300F00F0088420DD2B8
:10186000D8F8F80320F00F002843C8F8F803D8F898
:10187000F80300F00F00A84240F0B880206881070C
:1018800017D5410705D5D8F8001041F4E051C8F844
:101890000010010705D5D8F8001041F46041C8F8E0
:1018A0000010D8F80010A26821F0F0011143C8F828
:1018B0000010C00728D1D8F8F80300F00F00A842A4
:1018C0000DD9D8F8F80320F00F002843C8F8F80322
:1018D000D8F8F80300F00F00A84240F08780206895
:1018E00041071DD4000725D4D8F8000000F00C00F3
:1018F00008282ED004284FD147F64000C0F27D10B2
:101900004EE000BF012070476068022862D00128C5
:1019100068D158F8081C89036CD40120BDE8F08117
:10192000D8F80010E26821F4E0511143C8F8001023
:101930000007D9D5D8F80000216920F4604040EABA
:10194000C100C8F80000D8F8000000F00C0008281A
:10195000D0D158F8042C58F8040C400247F6400047
:1019600058F8041CC0F27D105CBF42F20040C0F287
:10197000F400C1F3881102F03F02A0FB0101002333
:10198000FEF7A8FC58F8041C0222C1F3014102EB47
:101990004101B0FBF1F003E042F20040C0F2F4007C
:1019A000D8F8001043F21622C0F60002C1F303116A
:1019B000515C40F20402C2F20002C84040F2080149
:1019C000C2F2000108601068FFF76EFE0020BDE85B
:1019D000F08100BF58F8081C89010BD40120BDE834
:1019E000F08100BF58F8081C890703D40120BDE826
:1019F000F08100BFD8F8001021F003010843C8F8B7
:101A00000000FFF72DFE064641F28837D8F80000A7
:101A1000616800F00C00B0EB810F3FF44CAFFFF7B2
:101A20001FFE801BB842F1D90320BDE8F081000001
:101A300000284FD02DE9F04182B00446007843F6EB
:101A40000006C007C4F202060CD0B06800F00C001B
:101A5000042840F081803068800303D56068002846
:101A600000F03281207880071BD5B06810F00C0F91
:101A700009D0B06800F00C00082840F08B80706836
:101A8000400200F187803068800703D5E0680128B4
:101A900040F01A813068216920F0F80040EAC10066
:101AA00030602078000717D4207840072CD4A5692F
:101AB000002D00F00581B06800F00C00082840F00F
:101AC000A780012D706840F0D980012002B0BDE8E8
:101AD000F08100BF0120704760690028706F00F03E
:101AE000838040F001007067FFF7BAFD054600BF34
:101AF000706F8007D8D4FFF7B3FD401B0228F7D9D9
:101B0000032002B0BDE8F081306C5FEAC00808D461
:101B1000306C40F080503064306C00F080500190A8
:101B2000019847F20007C4F200073868C00549D49D
:101B3000386840F480703860FFF792FD054600BFBA
:101B40003868C0053ED4FFF78BFD401B6428F7D9E9
:101B5000032002B0BDE8F081B06800F00C00082856
:101B600003D1706840023FF576AF6068002800F04E
:101B7000ED80B0F5A02F00F00181B0F5803F00F0BE
:101B80000181306820F480303060306820F480209B
:101B9000FBE000BFE068002830685BD040F0010047
:101BA0003060FFF75DFD0546306880073FF572AF96
:101BB000FFF756FD401B0228F6D9032002B0BDE80E
:101BC000F08100BFA068002800F08280052800F0A6
:101BD0009980012800F09A80306F20F00100306772
:101BE000306F20F0040094E020F001007067FFF7F0
:101BF00037FD0546706F80077FF556AFFFF730FD64
:101C0000401B0228F6D9032002B0BDE8F08100BFD6
:101C1000306820F080703060FFF722FD022D05460D
:101C20000CD100BF3068800140F1C280FFF718FD81
:101C3000401B02284FF00300F4D91CE030688001FB
:101C40003ED5FFF70DFD401B02284FF00300F5D9EC
:101C500011E000BF20F001003060FFF701FD0546F4
:101C6000306880077FF51DAFFFF7FAFC401B0228A4
:101C70004FF00300F4D902B0BDE8F08100F4800118
:101C8000E269914220D100F03F01226A91421BD1CA
:101C900047F6C071626A0140B1EB821F14D1A16A9C
:101CA0004FF6FF72C903914300F44032A1F5803131
:101CB0008A4209D1E16A00F07060B0EB016F03D194
:101CC000002002B0BDE8F081012002B0BDE8F08143
:101CD000306F20F001003067306F20F00400306773
:101CE000FFF7BEFC054641F2883700BF306F800722
:101CF00022D5FFF7B5FC401BB8424FF00300F5D9E1
:101D0000B9E700BF306F40F004003067306F40F03B
:101D100001003067FFF7A4FC054641F2883700BF99
:101D2000306F800708D4FFF79BFC401BB842F7D9FF
:101D3000032002B0BDE8F081B8F1000F3FF5B7AE67
:101D4000306C20F080503064B1E600BF306820F481
:101D500080303060306820F480203060FFF780FCF5
:101D6000054600BF306880037FF57CAEFFF778FC46
:101D7000401B64284FF00300F4D97CE7306840F43E
:101D800080203060306840F480303060FFF768FCBD
:101D9000054600BF306880033FF564AEFFF760FC86
:101DA000401B6428F6D9032002B0BDE8F08100BFD3
:101DB00004F11C074FF6FF758FCFDB03084323EABE
:101DC000050140EA8210A1F5803140EA076008432E
:101DD00040F000507060306840F080703060FFF775
:101DE0003FFC0446306880013FF56AAFFFF738FCDE
:101DF000001B02284FF00300F4D93CE7000000006C
:101E0000411E0020B0EB116F02D00120704700BFCF
:101E10004EF21002F023CEF2000251604EF6235132
:101E2000CEF200010B700721906011607047000036
:101E3000FEE7000000000000B0B584B040F294005E
:101E40000121C2F200000024C0F600710394C0E931
:101E50000A1442F2000180F82040C4F2010180F827
:101E6000304001604FF40031C0E90114C0E903447F
:101E70000125C561C0E90555FEF772FD08B1FEF701
:101E80004FFB40F294006946C2F200000294CDE993
:101E90000045FEF751FB08B1FEF742FB04B0B0BDB0
:101EA000B0B584B040F2DC000121C2F20000002491
:101EB000C0F600710394C0E90A1442F2001180F8E0
:101EC0002040C4F2010180F8304001604FF400313D
:101ED000C0E90114C0E903440125C561C0E9055505
:101EE000FEF73EFD08B1FEF71BFB40F2DC00694641
:101EF000C2F200000294CDE90045FEF71DFB08B1D7
:101F0000FEF70EFB04B0B0BDB0B584B040F22410B3
:101F10000121C2F200000024C0F600710394C0E960
:101F20000A1442F2002180F82040C4F2010180F836
:101F3000304001604FF40031C0E90114C0E90344AE
:101F40000125C561C0E90554FEF70AFD08B1FEF799
:101F5000E7FA40F224106946C2F200000294CDE98B
:101F60000045FEF7E9FA08B1FEF7DAFA04B0B0BDB1
:101F700080B582B043F630000022C4F2020001684E
:101F800041F4800101600068002100F480000190AC
:101F900001983820FFF7D8FB382002B0BDE8804018
:101FA000FFF7C2BB000000002DE9F04F87B043F6F9
:101FB00030004FF00009C4F20200CDF8189040F64E
:101FC000000800220168C4F2020841F0200101600B
:101FD000016808F5406701F020010191019901684D
:101FE00041F08001016001683C2401F08001019111
:101FF0000199016841F004010160016801F00401E8
:1020000001910199016841F001010160016801F04D
:10201000010101910199016841F01001016001681D
:1020200001F0100101910199016841F0080101607E
:1020300000683C2100F00800019001983846FFF745
:1020400007FB0521002240464FF0050AFFF700FB81
:1020500008F500664FF46C4100223046FFF7F8FAAD
:1020600008F580654FF4804100222846FFF7F0FA1A
:10207000029402AC384621464FF0010BCDF8149083
:10208000CDE903B9FFF70CFA40462146CDE902AB92
:10209000CDE90499FFF704FA4FF46C402146CDE9ED
:1020A000020B3046CDE90499FFF7FAF94FF480406E
:1020B0002146CDE9020B2846CDE90499FFF7F0F956
:1020C00007B0BDE8F08F0000FEE700000000000050
:1020D000FEE7000000000000704700000000000064
:1020E0007047000000000000FFF7C2BA00000000C7
:1020F00080B592B000200590CDE90A00CDE9080036
:10210000CDE90300CDE9010043F640000122C4F20D
:102110000200016841F080510160006800F08050C9
:102120000090009847F20000C4F20000016862F3DA
:102130008F31016000684FF4800100F4404000904E
:1021400000984FF48030079002200C900D910C21E4
:102150000E913221CDE90F10119006A80692FFF7DB
:1021600067FC08B1FEF7DCF9FFF72EFB08B1FEF7BC
:10217000D7F90F2001900220029000200590CDE9B0
:10218000030001A80121FFF75BFB08B1FEF7C8F9C6
:1021900012B080BD000000004EF68850CEF2000064
:1021A000016841F470010160704700000000000008
:1021B000FEE700000000000010B540F600043C21DE
:1021C000C4F2020404F54060FFF7EAF80521204656
:1021D000FFF7E6F804F500604FF46C41FFF7E0F814
:1021E00004F580604FF48041FFF7DAF840F26C109C
:1021F000C2F20000FEF790FE40F29400C2F200002E
:10220000FEF7EEFA08B1FEF78BF940F2DC00C2F2FD
:102210000000FEF7E5FA08B1FEF782F940F224105B
:10222000C2F20000FEF7DCFA08B1FEF779F943F6D6
:102230003000C4F20200416921F4807141614169BA
:1022400021F400714161416921F4806141610168BB
:1022500021F020010160016821F080010160016826
:1022600021F004010160016821F0010101600168B1
:1022700021F010010160016821F00801016050F8AF
:102280000C1C41F4807140F80C1C50F80C1C21F41B
:10229000807140F80C1C50F8201C41F4800140F87B
:1022A000201C50F8201C21F4800140F8201C10BD97
:1022B00010B5092812D8DFE800F005132537495B6F
:1022C0006D7FA39141F200004FF4D841C4F20200A7
:1022D0000022BDE81040FFF7BBB900BF10BD00BF32
:1022E00041F200044FF43051C4F2020400222046AF
:1022F000FFF7AEF94FF4804101222046BDE81040BF
:10230000FFF7A6B941F200044FF4C841C4F2020439
:1023100000222046FFF79CF94FF40061012220467D
:10232000BDE81040FFF794B941F200044FF410519A
:10233000C4F2020400222046FFF78AF94FF49041CC
:1023400001222046BDE81040FFF782B941F20004A7
:102350004FF4D041C4F2020400222046FFF778F97E
:102360004FF4806101222046BDE81040FFF770B9AC
:1023700041F200044FF42051C4F20204002220462E
:10238000FFF766F94FF4884101222046BDE810406E
:10239000FFF75EB941F200044FF44061C4F2020459
:1023A00001222046FFF754F94FF4C0410022204695
:1023B000BDE81040FFF74CB941F200044FF49841DA
:1023C000C4F2020401222046FFF742F94FF4005103
:1023D00000222046BDE81040FFF73AB941F2000460
:1023E0004FF44061C4F2020400222046FFF730F9A6
:1023F0004FF4C04101222046BDE81040FFF728B944
:1024000041F200044FF49841C4F202040022204635
:10241000FFF71EF94FF4005101222046BDE810409D
:10242000FFF716B9000000002DE9F041CD2140F67C
:1024300000044143C4F2020404F500650022CE0A00
:1024400006EB8601A0EB41084FF400412846FFF758
:10245000FFF804F580674FF4804100223846FFF70B
:10246000F7F83046FFF724FF4FF480410122384649
:10247000FFF7EEF84FF4004101222846FFF7E8F895
:10248000C820FEF779FF052100222046FFF7E0F87B
:102490005FFA88F0FFF70CFF052101222046BDE816
:1024A000F041FFF7D5B8000070B5FFF7F1F8FFF77E
:1024B0001FFEFFF779FDFFF75BFDFFF7BDFCFFF7A0
:1024C000EFFCFFF721FD40F2241440F29005C2F228
:1024D0000004C2F20005012220462946FEF7D8FB7F
:1024E00040F27C06C2F2000696ED000ABDEEC00A7C
:1024F00010EE100AFFF798FF4FF49670FEF73CFFBE
:102500002046FEF789FC4FF49670FEF735FF4FF436
:10251000C870FEF731FF012220462946FEF7B8FBBE
:1025200096ED000ABDEEC00A10EE100AFFF77CFF20
:102530004FF49670FEF720FF2046FEF76DFC4FF437
:102540009670FEF719FF4FF4C870FEF715FF0122D1
:1025500020462946FEF79CFB96ED000ABDEEC00A18
:1025600010EE100AFFF760FF4FF49670FEF704FFBD
:102570002046FEF751FC4FF49670FEF7FDFE4FF437
:10258000C870FEF7F9FE012220462946FEF780FBBF
:1025900096ED000ABDEEC00A10EE100AFFF744FFE8
:1025A0004FF49670FEF7E8FE2046FEF735FC4FF438
:1025B0009670FEF7E1FE4FF4C870FEF7DDFE0122D3
:1025C00020462946FEF764FB96ED000ABDEEC00AE0
:1025D00010EE100AFFF728FF4FF49670FEF7CCFEBE
:1025E0002046FEF719FC4FF49670FEF7C5FE4FF437
:1025F000C870FEF7C1FE012220462946FEF748FBBF
:1026000096ED000ABDEEC00A10EE100AFFF70CFFAF
:102610004FF49670FEF7B0FE2046FEF7FDFB4FF438
:102620009670FEF7A9FE4FF4C870FEF7A5FE0122D2
:1026300020462946FEF72CFB96ED000ABDEEC00AA7
:1026400010EE100AFFF7F0FE4FF49670FEF794FEBE
:102650002046FEF7E1FB4FF49670FEF78DFE4FF437
:10266000C870FEF789FE012220462946FEF710FBBE
:1026700096ED000ABDEEC00A10EE100AFFF7D4FE78
:102680004FF49670FEF778FE2046FEF7C5FB4FF438
:102690009670FEF771FE4FF4C870FEF76DFE0122D2
:1026A00020462946FEF7F4FA96ED000ABDEEC00A70
:1026B00010EE100AFFF7B8FE4FF49670FEF75CFEBE
:1026C0002046FEF7A9FB4FF49670FEF755FE4FF437
:1026D000C870FEF751FE012220462946FEF7D8FABF
:1026E00096ED000ABDEEC00A10EE100AFFF79CFE40
:1026F0004FF49670FEF740FE2046FEF78DFB4FF438
:102700009670FEF739FE4FF4C870FEF735FE0122D1
:1027100020462946FEF7BCFA96ED000ABDEEC00A37
:1027200010EE100AFFF780FE4FF49670FEF724FEBD
:102730002046FEF771FB4FF49670FEF71DFE4FF436
:10274000C870FEF719FE012220462946FEF7A0FABE
:1027500096ED000ABDEEC00A10EE100AFFF764FE07
:102760004FF49670FEF708FE2046FEF755FB4FF437
:102770009670FEF701FE4FF4C870FEF7FDFD0122D2
:1027800020462946FEF784FA96ED000ABDEEC00AFF
:1027900010EE100AFFF748FE4FF49670FEF7ECFDBE
:1027A0002046FEF739FB4FF49670FEF7E5FD4FF437
:1027B000C870FEF7E1FD012220462946FEF768FABF
:1027C00096ED000ABDEEC00A10EE100AFFF72CFECF
:1027D0004FF49670FEF7D0FD2046FEF71DFB4FF438
:1027E0009670FEF7C9FD4FF4C870FEF7C5FD0122D3
:1027F00020462946FEF74CFA96ED000ABDEEC00AC7
:1028000010EE100AFFF710FE4FF49670FEF7B4FDBD
:102810002046FEF701FB4FF49670FEF7ADFD4FF436
:10282000C870FEF7A9FD012220462946FEF730FABE
:1028300096ED000ABDEEC00A10EE100AFFF7F4FD97
:102840004FF49670FEF798FD2046FEF7E5FA4FF438
:102850009670FEF791FD2046FEF7DEFA00F004F8D0
:10286000FFF7AAFC002070BD10B540F600043C2123
:10287000C4F20204002204F54060FEF7E9FE0521DF
:1028800000222046FEF7E4FE04F580604FF480410C
:102890000022FEF7DDFE04F500604FF46C410022DB
:1028A000BDE81040FEF7D4BE21F0004201F0004325
:1028B000A2F16052B2F5801F28BFD2F17F6C0BD914
:1028C0005FEA001C43EAC20242EB507018BF704737
:1028D00028BF20F001007047B2F5801FBCBF18462A
:1028E00070474FEA410C1CF5001F02D2084600F069
:1028F0008DBC70B500F0CAFA00000089FFF7F6BF82
:102900004FF00040A0F580007047000010B591EA3C
:10291000030F48BF83F0004300F11483841A71EB66
:10292000030C05D2121943EB0C03001B61EB0C01E5
:102930004FEA1154A4EB135CDFF81CE11EEA430FCD
:1029400018BF9EEA445F00F0748021EA045123EA34
:102950000E0343F48013DCF1200E32D322FA0CFE76
:1029600010EB0E0023FA0CFE41EB0E01CCF1200E11
:1029700003FA0EFE10EB0E00CCF1200E51F1000117
:10298000B1F5801F32D201EB045112FA0EF2BDE80C
:10299000104058BF7047401C38BF5FEA420218BF62
:1029A0007047002814BF20F0010041F100014FEAF8
:1029B000410313F5001F38BF7047A1F1C04100F07B
:1029C000B3BA012A43EB0302ACF1200CDCF11F0E79
:1029D00032BF4FF0000E23FA0CF310EB030041EB73
:1029E0000451B4EB115FD0D0A1EB045101F580117B
:1029F000490801EB04515FEA30000ED350F10000AA
:102A000038BF12FA0EFE08D1BDE81040C9E7401CDD
:102A100038BF5FEA4202CAD1C3E7BDE810404FEABF
:102A2000410313F5001F38BF7047A1F1C04100F00A
:102A30007BBA9EEA445F08D011EA5E0FBDE8104001
:102A400004BF01F0004100207047BDE8104070B5A0
:102A500000F01CFA64FBBE3E0000E0FF2DE9C0411F
:102A600030B4DFF8A4C23CEA111418BF3CEA1314D6
:102A700000F0ED801CEA111481EA030544EAD574E4
:102A800018BF1CEA131500F0C880A4EB050404F17C
:102A90007F7404F500344FF0004545EAC12145EA52
:102AA000C32341EA505143EA52534FEAC0204FEA50
:102AB000C222994208BF904200F09D804FEA136500
:102AC0000FF24416765D4FEA134506FB05F7C7F192
:102AD000807706FB07F74FEAD737A7FB03687642F4
:102AE000A7FB06CEC8F5803838BFA8F1010807FB60
:102AF00008E6A6FB028C4FF0000EE6FB03CEDCF1ED
:102B0000000CCEF1004E38BFAEF1010EA6FB0C5802
:102B10004FF00007E6FB0E87A1FB08C6A0FB07CE1F
:102B200016EB0E064FF0000545F10005E1FB0765C9
:102B300015F1E04E7EBFA4F580345FEA46066D4194
:102B400016F1800745F100054FEA172747EA0567A8
:102B50004FEA15254FEA0666A6F1DE46B6F1805F1C
:102B600020D9384605EBC47124F0010C01EB0C119F
:102B7000BCF1FE6F02D8F0BCBDE8008124425CBF0E
:102B800001F5801E9EEAC47F02D4F0BCBDE800813E
:102B9000244200F13980A1F1C041F0BCBDE8004100
:102BA00000F0C2B94FEAD02040EA41504FEAD121AB
:102BB0004FEAD22242EA43524FEAD323A7FB0286CE
:102BC00007FB036605FB02661EEA0E0F58BFA6EB65
:102BD0000056B6EB00564FEA520E4EEAC37E18EB93
:102BE0000E0E56EB530EBCD518EB02085E417F1C4F
:102BF00055F10005B5E74FF480154FF000074FF091
:102C000000064FF00008ACE701F1C04101F00041BF
:102C10004FF00000F0BCBDE800810CEA131511EA8A
:102C20000C1F00D00CE013EA0C1F00F026804FF0C0
:102C3000000081EA030101F00041F0BCBDE8008121
:102C4000F0BCBDE8004181EA030100F06DB9F0BCC1
:102C5000BDE8004170B500F019F900BF097EFC3EE7
:102C600000F007B84FF0000081EA030101F00041D5
:102C7000704781EA030100F057B9F0BCBDE800419C
:102C800022494FF000007047FFFDFBF9F7F5F4F221
:102C9000F0EEEDEBE9E8E6E4E3E1E0DEDDDBDAD8F7
:102CA000D7D5D4D3D1D0CFCDCCCBCAC8C7C6C5C455
:102CB000C2C1C0BFBEBDBCBBBAB9B8B7B6B5B4B36C
:102CC000B2B1B0AFAEADACABAAA9A8A8A7A6A5A457
:102CD000A3A3A2A1A09F9F9E9D9C9C9B9A9999981B
:102CE0009797969595949393929191908F8F8E8EBE
:102CF0008D8C8C8B8B8A898988888787868585844B
:102D000084838382828181800000FF070000F87F36
:102D1000B0FA80F310FA03F10AD0C3F11D0303F5F2
:102D200080634FEA03524FEA415002EBD1217047D2
:102D30004FF000007047000070B5DFF848C11CEA92
:102D4000111E1EBF1CEA13159EEA0C0F95EA0C0F0C
:102D500000F06F8081EA03044EEAD47EAE4421EA9B
:102D60004C1123EA4C1341F4801143F48013AEF16B
:102D70007F7EA1FB024CA0FB0365361955EB0C05C9
:102D8000A1FB034C4CF10003A0FB021C16EB0C064C
:102D9000654153F10003094218BF46F0010613F4E0
:102DA000007F0BD14FEA03314FEA053041EA15515C
:102DB00040EA165034036FF003020AE04FEAC321E1
:102DC0004FEAC52041EA555140EA5650F4026FF0EF
:102DD000020202EB2E4201EB025585EACE710AD0C7
:102DE0005FEA440C18BF24F0004450F1000041F1A8
:102DF000000120EAD47040F2FE7C624500D270BD32
:102E0000A84214BF4FF080444FF04044002E08BF4A
:102E10000024BEF1806FA8BFA1F1C041BDE87040A1
:102E200080F2828001F1C04101F000414FF00000CA
:102E300070470CEA13159EEA0C0F18BF95EA0C0FA9
:102E400006D081EA030E4FF000000EF0004170BD85
:102E500000F01CF88900013E00F007B800F009B846
:102E60004FEA430C5FEA5C5C08D081EA030100F0A2
:102E70005BB84FEA410C5FEA5C5CF6D102494FF067
:102E8000000070470000FF070000F87F0EF1020EFF
:102E90002EF0030E5EF8046B364205D4012A43EB94
:102EA000030515F5001F12D8012841EB010C1CF594
:102EB000001F0CD80ED14FEAD17C0CEB4C0C0CF15E
:102EC000020C15F5001F08BF4CEBD37C04E04FF05B
:102ED000080C01E04FEAD37C0CEB4C0526FA05F612
:102EE00006F00706B6F1040C06D20EEB860CBDE820
:102EF00070404CF0010C6047DFE80CF0090B020257
:102F00004FF00041A1F500214FF0000070BD1946BF
:102F10001046012851EB010418BFD4F5001484BFFA
:102F2000002001F0004170BD0808A0F500114FEA33
:102F30003101704710B591EA030F48BF83F0004399
:102F40003FF5ECAC841A71EB030C07D28CF0004C0B
:102F5000121943EB0C03001B61EB0C014FEA1154F7
:102F6000A4EB135CDFF8A4E11EEA430F18BF9EEA4E
:102F7000445F00F0B48021EA045123EA6E03524218
:102F8000C3EB6E0338BF5B1EDCF1200E25D322FAA3
:102F90000CFE10EB0E0043FA0CFE41EB0E01CCF1DF
:102FA000200E03FA0EFE10EB0E00CCF1200E51F1B4
:102FB000000129D401EB045112FA0EF2BDE81040D1
:102FC00058BF7047401C1CBFB2F1004F704700282B
:102FD0000CBF491C20F00100704712EB020E43EBBE
:102FE000030218BF4FF0010E4EEA4202ACF1200C72
:102FF000DCF11E0E56D943FA0CFE10EB0E00CCF19C
:103000001E0E51F1FF31D5D50EF1010E12FA0EFE52
:10301000404141EB010101EB445C5FEA5C5C10D98B
:1030200001EB045110EBDE7038BFBEF1004FBDE87C
:10303000104018BF704700280CBF491C20F0010049
:10304000704734D24FEAD42C24F4006411F50011F7
:103050001BD0B1FA81F20B3AA41AA41ED2F12003BC
:10306000914030FA03F31943904001EBCC7101EB2E
:103070000451002CBDE81040A8BF704701F1C041C9
:1030800001F000414FF000007047B0FA80F310FAF1
:1030900003F102D1BDE810407047E41A173C48051F
:1030A000C90AE2E701EB0451BDE81040704749103E
:1030B0004FEA300001EB0451BDE8104002E04FF050
:1030C000000170474A0008BF0042F8D0B2F5001F67
:1030D00028BF704701F000414FF0000070479EEAA2
:1030E000445F07D011EA5E0FBDE8104004BF002125
:1030F00000207047BDE8104070B5FFF7C7FE00BF65
:1031000040DFF63E104683F0004170470000E0FFCC
:1031100043004FEAD30C4FEA3C0C43401FBF40072B
:103120000CF1605113F0FE4F70471CF0006F03D19B
:103130000CF00041002070470CF0004343EA50704F
:1031400040EACC0010B500F00EF800BF000000927D
:103150004FEA0001FFF7E8BE4FF00041A1F5002162
:103160004FF0000070470EF1020E2EF0030E5EF8D5
:10317000044B244204D44FEA4102B2F17F4F11D8EC
:103180004FEA4003B3F17F4F0CD80ED14FEAD07C09
:103190000CEB4C0C0CF1020CB2F17F4F08BF4CEB66
:1031A000D17C04E04FF0080C01E04FEAD17C0CEB3D
:1031B0004C0324FA03F404F00704B4F1040C06D21F
:1031C0000EEB840CBDE810404CF0010C6047DFE8CA
:1031D0000CF0070802024FF00040A0F5800010BD7F
:1031E0000846420018BFD2F1807288BF00F000404C
:1031F00010BDF1EE100A4FF6FF71C0F2C03120EAA7
:10320000010040F04070E1EE100A7047FF2141EAF2
:10321000D050C0057047000000000000000001020F
:103220000304060708090006101600061016000021
:103230005032000800000020100000002C0200089E
:103240006032000810000020C00700004C02000897
:1032500001000000100000000024F4000000000045
:04000005080001C925
:00000001FF
