:020000040800F2
:1000000078060120950200089D0200089F02000862
:10001000A1020008A3020008A502000800000000D9
:10002000000000000000000000000000A70200081F
:10003000A902000800000000AB020008AD020008A1
:10004000AF020008AF020008AF020008AF020008CC
:10005000AF020008AF02000841040008690400086C
:10006000AF020008AF020008AF020008AF020008AC
:10007000AF020008AF020008AF020008AF0200089C
:10008000AF020008AF020008AF020008AF0200088C
:10009000AF020008AF020008AF020008AF0200087C
:1000A000AF020008AF020008AF020008AF0200086C
:1000B000AF020008AF020008AF020008AF0200085C
:1000C000AF020008AF020008AF020008AF0200084C
:1000D000AF020008AF020008AF020008AF0200083C
:1000E00051040008AF020008AF020008AF02000888
:1000F000AF020008AF020008AF020008AF0200081C
:10010000AF020008AF020008AF020008AF0200080B
:10011000AF020008AF020008AF020008AF020008FB
:10012000AF020008AF020008AF020008AF020008EB
:10013000AF020008AF020008AF020008AF020008DB
:10014000AF020008AF020008AF020008AF020008CB
:10015000AF020008AF020008AF020008AF020008BB
:10016000AF020008AF020008AF020008AF020008AB
:10017000AF020008AF020008AF0200080000000054
:10018000AF020008AF020008AF020008AF0200088B
:10019000AF020008AF020008AF020008AF0200087B
:1001A0000000000000000000AF020008AF020008DD
:1001B000AF020008AF020008AF020008AF0200085B
:1001C000AF020008AF02000800F002F800F052F899
:1001D00014A696E8000CB244B344DA4501D100F00D
:1001E00049F8BAE80F000FA696E83000A5EB040521
:1001F00004EB0607AAEB0704A7F101074FEA151560
:100200004FEA3414A4F10104AC4201D300F032F8F7
:1002100013F0010F18BFFB1A43F0010300F001F8BF
:10022000DBE71847201C0000401C0000103A24BFE8
:1002300078C878C1FAD8520724BF30C830C144BF4B
:1002400004680C6070470000704700000023002421
:1002500000250026103A28BF78C1FBD8520728BFD6
:1002600030C148BF0B6070471FB501F0D6FD1FBD00
:1002700010B510BD00F0A9F81146FFF7F5FF01F029
:10028000B7FD00F0C7F803B4FFF7F2FF03BC00F0BE
:10029000CFF800000948804709480047FEE7FEE71D
:1002A000FEE7FEE7FEE7FEE7FEE7FEE7FEE7FEE726
:1002B00004480549054A064B70470000991A000892
:1002C000C901000878000120780601207802012089
:1002D0007802012053EA020C00F069802DE9F04B0E
:1002E0004FF00006002B1FBFB3FA83F503FA05F4A5
:1002F00024FA05F65E4012BF1643B2FA82F502FAFE
:1003000005F4C5F120051EBF22FA05FC44EA0C04E1
:10031000203556EA044C4FEA144418BF641C4FF0D1
:1003200000084FF00009904271EB030C39D300290B
:1003300019BFB1FA81F701FA07F6B0FA80F700FAAF
:1003400007F6C7F120071EBF20FA07FC46EA0C0695
:100350002037B6FBF4FCA7EB0507103F07F01F0B97
:10036000CBF120062CFA06F60CFA0BFB44BFB34681
:100370000026202FA4BF5E464FF0000B5BEA060C60
:1003800008BF4FF0010B19EB0B0948EB0608ABFB5C
:10039000027C06FB02CC0BFB03CCC01B71EB0C01F7
:1003A000C1E70B46024641464846BDE8F08B13B50F
:1003B000084318BF4FF0FF300146AFF30080BDE89F
:1003C0001C407047704770477047754600F02CF826
:1003D000AE4605006946534620F00700854618B032
:1003E00020B5FFF765FFBDE820404FF000064FF055
:1003F00000074FF000084FF0000BAC46ACE8C00916
:10040000ACE8C009ACE8C009ACE8C00921F00701BC
:100410008D46704710B50446AFF300802046BDE816
:100420001040FFF730BF0000004870471000012067
:1004300001491820ABBEFEE726000200704700000D
:1004400080B5012000F0B4F980BD0000000000007C
:1004500080B54FF4804000F0ABF94FF4004000F05D
:10046000A7F980BD0000000080B5022000F0A0F9CF
:1004700080BD000000000000FFE7FEE70000000074
:1004800080B594B0002013901290119010900F90AE
:10049000FFE743F63000C4F20200016841F080013A
:1004A0000160006800F080000E900E98FFE7FFE703
:1004B00043F63000C4F20200016841F0040101601B
:1004C000006800F004000D900D98FFE7FFE743F689
:1004D0003000C4F20200016841F0200101600068B0
:1004E00000F020000C900C98FFE7FFE743F6300087
:1004F000C4F20200016841F040010160006800F0B0
:1005000040000B900B98FFE7FFE743F63000C4F282
:100510000200016841F010010160006800F0100065
:100520000A900A98FFE7FFE743F63000C4F20200A2
:10053000016841F008010160006800F008000990BE
:100540000998FFE7FFE743F63000C4F202000168B4
:1005500041F001010160006800F001000890089876
:10056000FFE705200F9001200290109000200690D8
:100570001190129040F60000C4F202000FA90391FE
:1005800000F032F9039906984FF440420F924FF46D
:10059000441201921092119041F20040C4F2020004
:1005A00000F022F9019A0399069803230F93109201
:1005B000119041F60000C4F2020000F015F9029A11
:1005C000039906984FF46C430F9310921190129078
:1005D00041F20000C4F2020000F006F9029A039909
:1005E00006984FF480430F9310921190129040F6AA
:1005F0000040C4F2020000F0F7F8069A06200490CA
:10060000114600F0EDFB049800F0DEFB069A07208F
:100610000590114600F0E4FB059800F0D5FB069A22
:1006200028200790114600F0DBFB079800F0CCFB78
:1006300014B080BD0000000080B584B0039000F0CD
:10064000FBFA0290039801900198013048B1FFE74E
:1006500040F20400C2F201000178019808440190C0
:10066000FFE7FFE700F0E8FA0299401A0199884293
:1006700001D2FFE7F6E704B080BD000000000000F3
:1006800080B582B0ADF80600BDF8060002281DD185
:10069000FFE741F60000C4F20200022100F09CFADC
:1006A000012809D1FFE740F27401C2F20101087884
:1006B00040F00100087008E040F27401C2F201014C
:1006C000087800F0FE000870FFE76CE0BDF8060057
:1006D00001281DD1FFE741F60000C4F2020001210C
:1006E00000F07AFA012809D1FFE740F27401C2F262
:1006F0000101087840F00200087008E040F274013F
:10070000C2F20101087800F0FD000870FFE749E03F
:10071000BDF80600B0F5004F1ED1FFE741F20040E2
:10072000C4F202004FF4004100F056FA012809D14A
:10073000FFE740F27401C2F20101087840F00400C2
:10074000087008E040F27401C2F20101087800F07C
:10075000FB000870FFE724E0BDF80600B0F5804F0D
:100760001ED1FFE741F20040C4F202004FF4804185
:1007700000F032FA012809D1FFE740F27401C2F219
:100780000101087840F00800087008E040F27401A8
:10079000C2F20101087800F0F7000870FFE7FFE7F8
:1007A000FFE7FFE7FFE702B080BD000000000000A8
:1007B00080B582B0ADF8060043F61440C4F20100E3
:1007C0000068BDF8061008420CD0FFE7BDF806002F
:1007D00043F61441C4F201010860BDF80600FFF7BA
:1007E0004FFFFFE702B080BD90B00F900E91002048
:1007F0000D900C900B900A900D90FFE70D980F282C
:1008000000F2E681FFE70D99012088400C900E98D8
:1008100000680C9908400B900B980C99884240F0A6
:10082000D281FFE70E98406800F00300012807D04E
:10083000FFE70E98406800F0030002282FD1FFE781
:100840000F9880680A900D984100032000FA01F18A
:100850000A9888430A900E98C0680D99490000FADA
:1008600001F10A9808430A900A980F9988600F9836
:1008700040680A900D99012000FA01F10A98884316
:100880000A900E984068C0F300100D9900FA01F12B
:100890000A9808430A900A980F994860FFE70E9853
:1008A000406800F00300032818D0FFE70F98C068E5
:1008B0000A900D984100032000FA01F10A9888433C
:1008C0000A900E9880680D99490000FA01F10A9883
:1008D00008430A900A980F99C860FFE70E9840688D
:1008E00000F00300022826D1FFE70F980D996FF062
:1008F000030202EA51010844006A0A900D9800F0D0
:10090000070081000F2000FA01F10A9888430A903D
:100910000E9800690D9901F00701890000FA01F1B4
:100920000A9808430A900A980F990D9B02EA53020D
:1009300011440862FFE70F9800680A900D98410083
:10094000032000FA01F10A9888430A900E98406843
:1009500000F003000D99490000FA01F10A980843DC
:100960000A900A980F9908600E98807980070028ED
:1009700000F02881FFE7FFE743F64400C4F20200DD
:10098000016841F480410160006800F480400990F2
:100990000998FFE70D9820F0030043F60801C4F220
:1009A000010140580A900D9800F0030081000F20CB
:1009B00000FA01F10A9888430A900F980021C4F2C6
:1009C0000201884203D1FFE7002008907AE00F98E7
:1009D00040F20041C4F20201884203D1FFE7012046
:1009E00007906CE00F9840F60001C4F202018842C3
:1009F00003D1FFE7022006905EE00F9840F6004129
:100A0000C4F20201884203D1FFE70320059050E0C1
:100A10000F9841F20001C4F20201884203D1FFE7BE
:100A20000420049042E00F9841F20041C4F2020118
:100A3000884203D1FFE70520039034E00F9841F688
:100A40000001C4F20201884203D1FFE706200290B0
:100A500026E00F9841F60041C4F20201884203D11A
:100A6000FFE70720019018E00F9842F20001C4F25E
:100A70000201884203D1FFE7082000900AE00F99A5
:100A800042F20042C4F202020A20914208BF092049
:100A90000090FFE700980190FFE701980290FFE7C0
:100AA00002980390FFE703980490FFE704980590ED
:100AB000FFE705980690FFE706980790FFE707987D
:100AC0000890FFE70898C0B20D9901F00301890072
:100AD00000FA01F10A9808430A900A980D9921F04A
:100AE000030143F60802C4F20102885043F60840AD
:100AF000C4F2010000680A900B990A9888430A9092
:100B00000E988079C006002805D5FFE70B990A9852
:100B100008430A90FFE70A9843F60841C4F201012E
:100B2000086043F60C40C4F2010000680A900B997B
:100B30000A9888430A900E9880798006002805D587
:100B4000FFE70B990A9808430A90FFE70A9843F6D3
:100B50000C41C4F20101086043F60440C4F20100F4
:100B600000680A900B990A9888430A900E98807939
:100B70008007002805D5FFE70B990A9808430A90DB
:100B8000FFE70A9843F60441C4F20101086043F606
:100B90000040C4F2010000680A900B990A9888434B
:100BA0000A900E988079C00728B1FFE70B990A9840
:100BB00008430A90FFE70A9843F60041C4F2010196
:100BC0000860FFE7FFE7FFE70D9801300D9015E69D
:100BD00010B070470000000082B00190ADF8021024
:100BE00001980069BDF80210084204D0FFE7012017
:100BF0008DF8010003E000208DF80100FFE79DF86B
:100C0000010002B07047000082B00190ADF8021000
:100C10008DF801209DF8010028B1FFE7BDF8020022
:100C20000199886105E0BDF802000004019988611E
:100C3000FFE702B07047000081B040F20000C2F24E
:100C400001000068800B0090FFE7009888B1FFE783
:100C500000BF00BF00BF00BF00BF00BF00BF00BF9C
:100C600000BF00BF00BF00BFFFE700980138009041
:100C7000EBE740F27001C2F2010108680130086040
:100C800001B070470000000080B543F60041C4F297
:100C90000201086840F400700860086840F4807041
:100CA0000860032000F0B8F80F2000F005F800F00D
:100CB00087F8002080BD000081B00090002001B0C6
:100CC000704700000000000080B582B001900198DC
:100CD00040784EF69851CEF20001086001980078F5
:100CE00098B3FFE7019840684EF69C51CEF20001A0
:100CF0000860DDF804C0CDF800C09CF80C000007C7
:100D00009CF80B1040EA01609CF800109CF8082049
:100D10009CF809309CF80AE040EACE409CF80DE0CF
:100D200040EA8E409CF80EE040EA4E409CF80FC02E
:100D300040EA0C4040EA032040EA420008434EF6F5
:100D4000A051CEF2000108600BE04EF69C51CEF2AD
:100D50000001002008604EF6A051CEF200010860AC
:100D6000FFE702B080BD0000BFF35F8F4EF6245155
:100D7000CEF20001086820F4803008604EF69451ED
:100D8000CEF2000100200860704700000000000063
:100D900081B00090009840F001004EF69451CEF2E0
:100DA000000108604EF62451CEF20001086840F4BC
:100DB00080300860BFF34F8FBFF36F8F01B0704773
:100DC000704700000000000080B582B08DF8070079
:100DD0009DF9070000F06CFE02B080BD000000002D
:100DE00080B586B08DF81700049103920020029020
:100DF00000F076FE02909DF9170001900298049988
:100E0000039A00F0D5FD0146019800F071FE06B08E
:100E100080BD00000000000080B582B00190019804
:100E200000F08AFE02B080BD80B584B00020029040
:100E3000FFE743F64000C4F20200016841F0805130
:100E40000160006800F0805001900198FFE747F2D0
:100E50000001C4F20001086840F480300860FFF728
:100E6000EBFE0290FFE747F20400C4F200000068C6
:100E700000F48030B0F5803F0DD0FFE7FFF7DCFED7
:100E80000299401AB0F57A7F04D9FFE703208DF864
:100E90000F0028E0E7E747F20001C4F2000108680C
:100EA00040F400300860FFF7C7FE0290FFE747F20A
:100EB0000400C4F20000006800F40030B0F5003F08
:100EC0000DD0FFE7FFF7B8FE0299401AB0F57A7F20
:100ED00004D9FFE703208DF80F0004E0E7E70020C6
:100EE0008DF80F00FFE79DF80F0004B080BD0000F3
:100EF00080B584B00290019100200090029820B942
:100F0000FFE701208DF80F0024E1019843F600412E
:100F1000C4F20201096801F00F01884216D9FFE707
:100F200043F60040C4F20200016821F00F01019A6B
:100F300011430160006800F00F000199884204D05D
:100F4000FFE701208DF80F0004E1FFE70298007829
:100F5000800700282AD5FFE702980078400700287C
:100F600009D5FFE743F60801C4F20201086840F41E
:100F7000E0500860FFE7029800780007002809D5D4
:100F8000FFE743F60801C4F20201086840F460403C
:100F90000860FFE743F60801C4F20201086820F088
:100FA000F000029A926810430860FFE70298007808
:100FB000C007002869D0FFE702984068012811D1D6
:100FC000FFE743F60000C4F20200006800F40031BD
:100FD0000020B0EB514F04D1FFE701208DF80F0046
:100FE000B8E027E002984068022811D1FFE743F6F5
:100FF0000000C4F20200006800F000710020B0EBB5
:10100000516F04D1FFE701208DF80F00A2E010E03E
:1010100043F60000C4F20200006800F00201002064
:10102000B0EB510F04D1FFE701208DF80F0091E0E4
:10103000FFE7FFE743F60801C4F20201086820F069
:101040000300029A526810430860FFF7F5FD009014
:10105000FFE743F60800C4F20200006800F00C004D
:1010600002994968B0EB810F0ED0FFE7FFF7E4FD6E
:101070000099401A41F28931884204D3FFE70320E6
:101080008DF80F0066E0E4E7FFE7019843F60041C2
:10109000C4F20201096801F00F01884216D2FFE78D
:1010A00043F60040C4F20200016821F00F01019AEA
:1010B00011430160006800F00F000199884204D0DC
:1010C000FFE701208DF80F0044E0FFE70298007869
:1010D000400700280CD5FFE743F60801C4F20201DF
:1010E000086820F4E050029AD26810430860FFE7D5
:1010F00002980078000700280DD5FFE743F60801A5
:10110000C4F20201086820F46040029A126940EAC1
:10111000C2000860FFE700F023F843F60801C4F2BC
:1011200002010968C9B20A0941F63461C0F600013A
:10113000895CC84040F20001C2F20101086040F23F
:101140000800C2F201000068FFF7B6FD00208DF82C
:101150000F00FFE79DF80F0004B080BD0000000005
:1011600080B586B00020059004900390029043F66D
:101170000800C4F20200006800F00C000146019172
:1011800040B1FFE7019804280AD0FFE7019808283A
:101190000CD04FE042F20040C0F2F40002904FE069
:1011A00047F64000C0F27D10029049E043F604008B
:1011B000C4F20200016801F03F010591006840029D
:1011C000002813D5FFE743F60400C4F202000068CC
:1011D000C0F3881047F64001C0F27D11A0FB010169
:1011E000059A0023FFF776F8049012E043F6040016
:1011F000C4F202000068C0F3881042F20041C0F25D
:10120000F401A0FB0101059A0023FFF763F80490A5
:10121000FFE743F60400C4F20200006800F4403126
:10122000022000EBD130039004980399B0FBF1F059
:10123000029005E042F20040C0F2F4000290FFE7A5
:10124000029806B080BD000080B586B004900020F2
:101250008DF80700049820B9FFE701208DF81700EA
:101260007AE304980078C007002800F0B780FFE711
:1012700043F60800C4F20200006800F00C000428E5
:1012800013D0FFE743F60800C4F20200006800F044
:101290000C0008281ED1FFE743F60400C4F2020048
:1012A00000684002002815D5FFE743F60000C4F2AD
:1012B0000200006800F400310020B0EB514F08D06C
:1012C000FFE70498406820B9FFE701208DF8170078
:1012D00042E382E0FFE704984068B0F5803F09D11F
:1012E000FFE743F60001C4F20201086840F48030D1
:1012F000086032E00498406868B9FFE743F60001EF
:10130000C4F20201086820F480300860086820F404
:101310008020086020E004984068B0F5A02F0DD12F
:10132000FFE743F60001C4F20201086840F48020A0
:101330000860086840F4803008600CE043F6000163
:10134000C4F20201086820F480300860086820F4C4
:1013500080200860FFE7FFE7FFE7FFE704984068A9
:10136000E8B1FFE7FFF768FC0390FFE743F60000F2
:10137000C4F20200006800F400310020B0EB514FCD
:101380000CD1FFE7FFF758FC0399401A652804D3F6
:10139000FFE703208DF81700DEE2E7E71CE0FFF728
:1013A0004BFC0390FFE743F60000C4F20200006824
:1013B00000F400310020B0EB514F0CD0FFE7FFF7F5
:1013C0003BFC0399401A652804D3FFE703208DF8FE
:1013D0001700C1E2E7E7FFE7FFE7FFE704980078BF
:1013E0008007002840F19C80FFE743F60800C4F224
:1013F0000200006810F00C0F13D0FFE743F608005E
:10140000C4F20200006800F00C0008282CD1FFE7AD
:1014100043F60400C4F2020000684002002823D40E
:10142000FFE743F60000C4F20200006800F002018A
:101430000020B0EB510F09D0FFE70498C0680128E5
:1014400004D0FFE701208DF8170085E243F6000184
:10145000C4F20201086820F0F800049A126940EA18
:10146000C2000860FFE75AE00498C06888B3FFE74D
:1014700043F60001C4F20201086840F00100086070
:10148000FFF7DAFB0390FFE743F60000C4F2020027
:10149000006800F002010020B0EB510F0CD1FFE713
:1014A000FFF7CAFB0399401A032804D3FFE7032080
:1014B0008DF8170050E2E7E743F60001C4F202019D
:1014C000086820F0F800049A126940EAC200086037
:1014D00024E043F60001C4F20201086820F0010094
:1014E0000860FFF7A9FB0390FFE743F60000C4F292
:1014F0000200006800F002010020B0EB510F0CD098
:10150000FFE7FFF799FB0399401A032804D3FFE78D
:1015100003208DF817001FE2E7E7FFE7FFE7FFE78B
:1015200004980078000700284FD5FFE70498406929
:1015300028B3FFE743F67401C4F20201086840F0E3
:1015400001000860FFF778FB0390FFE743F67400A3
:10155000C4F20200006800F002010020B0EB510F5D
:101560000CD1FFE7FFF768FB0399401A032804D367
:10157000FFE703208DF81700EEE1E7E724E043F6EC
:101580007401C4F20201086820F001000860FFF74E
:1015900053FB0390FFE743F67400C4F202000068B7
:1015A00000F002010020B0EB510F0CD0FFE7FFF775
:1015B00043FB0399401A032804D3FFE703208DF867
:1015C0001700C9E1E7E7FFE7FFE704980078400765
:1015D000002840F1DB80FFE743F64000C4F2020040
:1015E0000068C000002813D4FFE7FFE743F640007F
:1015F000C4F20200016841F080510160006800F00F
:10160000805000900098FFE701208DF80700FFE769
:1016100047F20000C4F200000068C005002822D490
:10162000FFE747F20001C4F20001086840F480704F
:101630000860FFF701FB0390FFE747F20000C4F2E8
:1016400000000068C00500280CD4FFE7FFF7F4FA9B
:101650000399401A652804D3FFE703208DF817008B
:101660007AE1EAE7FFE7FFE704988068012809D1FB
:10167000FFE743F67001C4F20201086840F0010080
:10168000086031E00498806868B9FFE743F67001AC
:10169000C4F20201086820F001000860086820F028
:1016A000040008601FE00498806805280DD1FFE75A
:1016B00043F67001C4F20201086840F004000860BB
:1016C000086840F0010008600CE043F67001C4F2C5
:1016D0000201086820F001000860086820F004009A
:1016E0000860FFE7FFE7FFE7FFE704988068F8B1CD
:1016F000FFE7FFF7A1FA0390FFE743F67000C4F29B
:101700000200006800F002010020B0EB510F0ED182
:10171000FFE7FFF791FA0399401A41F289318842B5
:1017200004D3FFE703208DF8170015E1E5E71EE07D
:10173000FFF782FA0390FFE743F67000C4F202005D
:10174000006800F002010020B0EB510F0ED0FFE75F
:10175000FFF772FA0399401A41F28931884204D3A3
:10176000FFE703208DF81700F6E0E5E7FFE79DF8B7
:101770000700012809D1FFE743F64001C4F2020146
:10178000086820F080500860FFE7FFE70498806950
:10179000002800F0DD80FFE743F60800C4F20200F5
:1017A000006800F00C00082800F09080FFE7049823
:1017B0008069022864D1FFE743F60001C4F2020108
:1017C000086820F080700860FFF736FA0390FFE7A2
:1017D00043F60000C4F20200006800F0007100202F
:1017E000B0EB516F0CD0FFE7FFF726FA0399401AD0
:1017F000032804D3FFE703208DF81700ACE0E7E7E8
:101800000499C869D1F820C04B6A8A6A40EA0C0082
:1018100040EA8310D2034FF6FF739A43A2F5803259
:101820001043C96A40EA016040F0005043F60401E9
:10183000C4F20201086043F60001C4F20201086824
:1018400040F080700860FFF7F7F90390FFE743F678
:101850000000C4F20200006800F000710020B0EB4C
:10186000516F0CD1FFE7FFF7E7F90399401A0328FE
:1018700004D3FFE703208DF817006DE0E7E724E0CD
:1018800043F60001C4F20201086820F0807008608D
:10189000FFF7D2F90390FFE743F60000C4F202001D
:1018A000006800F000710020B0EB516F0CD0FFE732
:1018B000FFF7C2F90399401A032804D3FFE7032076
:1018C0008DF8170048E0E7E7FFE740E043F6040043
:1018D000C4F202000068029004988069012831D0A7
:1018E000FFE7029800F480000499C969884229D171
:1018F000FFE7029800F03F000499096A884221D16D
:10190000FFE7029847F6C07108400499496AB0EBB6
:10191000811F17D1FFE7029800F440300499896ACB
:10192000C9034FF6FF729143A1F58031884209D176
:10193000FFE7029800F070600499C96AB0EB016F8C
:1019400004D0FFE701208DF8170005E0FFE7FFE76F
:1019500000208DF81700FFE79DF8170006B080BD46
:1019600080B584B0FFF700FA01218DF800104FF028
:101970000050019012208DF8080003208DF80B0014
:1019800000208DF80F008DF80E108DF80D008DF8E9
:1019900001008DF80A008DF809008DF80C006846EA
:1019A000FFF792F90420FFF7F3F904B080BD0000BF
:1019B00088B0079006910592079800F00700049000
:1019C0000498C0F10700052803D3FFE70420019025
:1019D00004E00498C0F107000190FFE7019803902C
:1019E00004980430062803D8FFE70020009003E0A5
:1019F000049803380090FFE7009802900698039936
:101A0000012202FA01F101390840029B9840059930
:101A10009A40013A1140084308B0704700000000A6
:101A200080B592B0012001904FF4803002900020E8
:101A30000490022007904FF4800108911921099128
:101A40004FF4D8710A910B9009200C9001A8FFF770
:101A5000FBFB18B1FFE7FEF70FFDFFE7FFF7E4F927
:101A600018B1FFE7FEF708FDFFE70F200D900220F9
:101A70000E9000200F904FF4A05010904FF4805023
:101A800011900DA80721FFF733FA18B1FFE7FEF711
:101A9000F3FCFFE712B080BD4EF68851CEF2000194
:101AA000086840F470000860704700000000000003
:101AB00081B08DF803009DF9030000280ED4FFE7E4
:101AC0009DF9031001F01F02012090404A094EF2D7
:101AD0000011CEF2000141F82200FFE701B070478B
:101AE0004EF60C50CEF200000068C0F302207047A2
:101AF00082B08DF8070000919DF9070000280AD4F4
:101B0000FFE7009800019DF907104EF20042CEF267
:101B1000000288540BE0009800019DF8071001F0C6
:101B20000F014EF61452CEF200028854FFE702B0C5
:101B3000704700000000000083B00290029800F09F
:101B4000070000904EF60C51CEF20001086801909B
:101B500001984FF6FF02104001900198009A40EA68
:101B600002200022C0F2FA5210430190019808604E
:101B700003B070470000000080B58CB08DF82F00D6
:101B80009DF82F0001460A91092800F2AB800A99BE
:101B9000DFE801F0050F203142536475869741F26A
:101BA0000000C4F202004FF4D8410022FFF72CF8E5
:101BB00098E041F20000C4F2020009904FF4305165
:101BC0000022FFF721F809984FF480410122FFF726
:101BD0001BF887E041F20000C4F2020008904FF4C5
:101BE000C8410022FFF710F808984FF40061012265
:101BF000FFF70AF876E041F20000C4F20200079015
:101C00004FF410510022FEF7FFFF07984FF4904168
:101C10000122FEF7F9FF65E041F20000C4F2020084
:101C200006904FF4D0410022FEF7EEFF06984FF4E5
:101C300080610122FEF7E8FF54E041F20000C4F2A7
:101C4000020005904FF420510022FEF7DDFF0598B9
:101C50004FF488410122FEF7D7FF43E041F2000034
:101C6000C4F2020004904FF440610122FEF7CCFF61
:101C700004984FF4C0410022FEF7C6FF32E041F263
:101C80000000C4F2020003904FF498410122FEF7D5
:101C9000BBFF03984FF400510022FEF7B5FF21E08F
:101CA00041F20000C4F2020002904FF49841002279
:101CB000FEF7AAFF02984FF400510122FEF7A4FF9D
:101CC00010E041F20000C4F2020001904FF44061C4
:101CD0000022FEF799FF01984FF4C0410122FEF760
:101CE00093FFFFE70CB080BD80B590B08DF83F004A
:101CF00041F20000C4F202000C904FF400410D913B
:101D000000220992FEF780FF099A40F60040C4F2D3
:101D100002000A904FF480410B91FEF775FF9DF889
:101D20003F00FFF729FF0A980B9901220E92FEF758
:101D30006BFF0C980D990E9AFEF766FF9DF83F0019
:101D40000B2851DBFFE79DF83F0049F69A11C1F6D9
:101D50009911A0FB01208DF83E009DF83F00A0FBEB
:101D6000012101EB8101A0EB41008DF83D0041F222
:101D70000000C4F2020003904FF4004104910022DD
:101D80000592FEF741FF059A40F60040C4F20200BA
:101D900001904FF480410291FEF736FF9DF83E001E
:101DA000FFF7EAFE0198029901220892FEF72CFF44
:101DB00003980499089AFEF727FF3220FEF73CFCAF
:101DC000059A40F60000C4F2020006900521079132
:101DD000FEF71AFF9DF83D00FFF7CEFE0698079923
:101DE000089AFEF711FFFFE710B080BD0000000069
:101DF00080B582B000200190FFF7B2FDFEF744FFEE
:101E0000FFF70EFEFEF73CFBFFE740F27400C2F264
:101E100001000078FFF768FFF7E7F1EE100A4FF6D0
:101E2000FF71C0F2C03120EA010040F04070E1EEE5
:101E3000100A7047000000000000000001020304C7
:101E400006070809681E00080000012010000000B5
:101E50002C020008781E000810000120680600000F
:101E60004C020008000000000024F4000100000003
:081E700010000000000000005A
:04000005080001C925
:00000001FF
