:020000040800F2
:10000000889201209D020008A5020008A7020008AE
:10001000A9020008AB020008AD02000800000000C1
:10002000000000000000000000000000DD020008E9
:10003000B1020008000000007503000885030008F5
:10004000B7020008B7020008B7020008B7020008AC
:10005000B7020008B7020008B7020008B905000897
:10006000B7020008B7020008B7020008B70200088C
:10007000B7020008B7020008B7020008B70200087C
:10008000B7020008B7020008B7020008B70200086C
:10009000B7020008B7020008B7020008B70200085C
:1000A000B7020008B7020008B7020008B70200084C
:1000B000B7020008B7020008B7020008B70200083C
:1000C000B7020008B7020008B7020008B70200082C
:1000D000B7020008B7020008B7020008B70200081C
:1000E000B7020008B7020008B7020008B70200080C
:1000F000B7020008B7020008B7020008B7020008FC
:10010000B7020008B7020008B7020008B7020008EB
:10011000B7020008B7020008B7020008B7020008DB
:10012000B7020008B7020008B7020008B7020008CB
:10013000B7020008B7020008B7020008B7020008BB
:10014000B7020008B7020008B7020008B7020008AB
:10015000B7020008B7020008B7020008B70200089B
:10016000B7020008B7020008B7020008B70200088B
:10017000B7020008B7020008B7020008000000003C
:10018000B7020008B7020008B7020008B70200086B
:10019000B7020008B7020008B7020008B70200085B
:1001A0000000000000000000B7020008B7020008CD
:1001B000B7020008B7020008B7020008B70200083B
:1001C000B7020008B702000800F002F800F052F889
:1001D00014A696E8000CB244B344DA4501D100F00D
:1001E00049F8BAE80F000FA696E83000A5EB040521
:1001F00004EB0607AAEB0704A7F101074FEA151560
:100200004FEA3414A4F10104AC4201D300F032F8F7
:1002100013F0010F18BFFB1A43F0010300F001F8BF
:10022000DBE718476C2C00008C2C0000103A24BF30
:1002300078C878C1FAD8520724BF30C830C144BF4B
:1002400004680C6070470000704700000023002421
:1002500000250026103A28BF78C1FBD8520728BFD6
:1002600030C148BF0B6070471FB500F099F91FBD42
:1002700010B510BD00F057F9114603B401F000F8B5
:1002800003BCFFF7F1FF01F01FF800F071F903B4B0
:10029000FFF7EEFF03BC00F079F900000948804742
:1002A00009480047FEE7FEE7FEE7FEE7FEE7FEE758
:1002B000FEE7FEE7FEE7FEE704480549054A064B70
:1002C0007047000049100008C9010008888C01200F
:1002D00088920120888E0120888E01201EF0040F54
:1002E0000CBFEFF30880EFF30980816911F8021C5D
:1002F000002931D101B590E80F10E047BDE800506A
:10030000CCF80000234B93E80600914208BF7047E9
:100310001A6041B91EF0100F10D11F4B186820F061
:10032000010018600AE02CE9F00F1EF0100F08BF62
:100330002CED108A81F822E0C1F838C01400A06BBF
:1003400094F922E01EF0100F08BFB0EC108AB0E85C
:10035000F00F80F309887047104A13689942FAD861
:1003600001B552F821C00FC8E047BDE80050CCF8F5
:100370000000704701B501F051FBBDE80140EFF30B
:10038000098CBFE701B501F0B3FDBDE80140EFF313
:10039000098CB7E71800012034EF00E0E02D0008D9
:1003A000032A40F2308010F0030C00F0158011F8A1
:1003B000013BBCF1020F624498BF11F801CB00F879
:1003C000013B38BF11F8013BA2F1040298BF00F8CD
:1003D00001CB38BF00F8013B11F0030300F071803E
:1003E000083AC0F0088051F8043B083A51F804CBB1
:1003F000A0E80810F5E7121D5CBF51F8043B40F877
:10040000043BAFF30080D20724BF11F8013B11F881
:1004100001CB48BF11F8012B24BF00F8013B00F8C5
:1004200001CB48BF00F8012B70474FF000020429B0
:10043000C0F0128010F0030C00F01B80CCF1040C13
:10044000BCF1020F18BF00F8012BA8BF20F8022B47
:10045000A1EB0C0100F00DB85FEAC17C24BF00F8ED
:10046000012B00F8012B48BF00F8012B70474FF01B
:10047000000200B5134694469646203922BFA0E8F4
:100480000C50A0E80C50B1F12001BFF4F7AF090700
:1004900028BFA0E80C5048BF0CC05DF804EB8900F1
:1004A00028BF40F8042B08BF704748BF20F8022B34
:1004B00011F0804F18BF00F8012B7047704770474C
:1004C000704710B5203AC0F00B80B1E81850A0E892
:1004D0001850B1E81850A0E81850203ABFF4F5AF12
:1004E0005FEA027C24BFB1E81850A0E8185044BF6E
:1004F00018C918C0BDE810405FEA827C24BF51F8DB
:10050000043B40F8043B08BF7047D20728BF31F8CE
:10051000023B48BF11F8012B28BF20F8023B48BF1F
:1005200000F8012B7047754600F02CF8AE46050028
:100530006946534620F00700854618B020B5FFF7FE
:10054000BBFEBDE820404FF000064FF000074FF023
:1005500000084FF0000BAC46ACE8C009ACE8C0099D
:10056000ACE8C009ACE8C00921F007018D4670472E
:1005700010B50446AFF300802046BDE81040FFF7F9
:1005800086BE000000487047A800012001491820DD
:10059000ABBEFEE72600020070470000000000002E
:1005A00080B502F0A1FBF1EE100A4EF63C71CEF2DE
:1005B0000001086080BD000080B5022000F0D0F886
:1005C00080BD10B5930712D400F10C03D00715D1EC
:1005D00053E8000F084203D1BFF32F8F002005E03E
:1005E00020EA010243E8002404B1F1E710BDC0682D
:1005F000D20700EA010312D1A3B912E053E8000FB9
:1006000000EA01028A4203D0BFF32F8F002005E0E9
:1006100020EA010243E8002404B1EFE710BD8B4259
:1006200000D0002010BD000080B590B000200F90D9
:100630000E900D900C900B90FFE743F63000C4F243
:100640000200016841F020010160006800F0200014
:100650000A900A98FFE7FFE743F63000C4F2020071
:10066000016841F040010160006800F0400009901D
:100670000998FFE7FFE743F63000C4F20200016883
:1006800041F010010160006800F010000890089827
:10069000FFE741F20040C4F2020002900421019100
:1006A0000022069200F098FA069A41F20000C4F285
:1006B000020005904FF48051039100F08DFA0199EA
:1006C0000298069A0B91012104910C910D920E91C2
:1006D0000BA9079100F060F8DDF80CC0049B0598A9
:1006E000069A0799CDF82CC00C930D920E9200F04B
:1006F00053F80698079902220B924FF488120C9235
:100700000D9041F60000C4F2020000F045F810B070
:1007100080BD00000000000080B582B0ADF806008A
:10072000BDF80600022819D1FFE741F60000C4F227
:100730000200022100F028FA01280ED1FFE740F262
:100740001850C2F201000121017040F20C50C2F2B7
:100750000100006800F05AFEFFE7FFE702B080BD2D
:1007600080B582B0ADF8060043F61440C4F2010033
:100770000068BDF8061008420CD0FFE7BDF806007F
:1007800043F61441C4F201010860BDF80600FFF70A
:10079000C3FFFFE702B080BD90B00F900E91002024
:1007A0000D900C900B900A900D90FFE70D980F287C
:1007B00000F2E681FFE70D99012088400C900E9829
:1007C00000680C9908400B900B980C99884240F0F7
:1007D000D281FFE70E98406800F00300012807D09F
:1007E000FFE70E98406800F0030002282FD1FFE7D2
:1007F0000F9880680A900D984100032000FA01F1DB
:100800000A9888430A900E98C0680D99490000FA2A
:1008100001F10A9808430A900A980F9988600F9886
:1008200040680A900D99012000FA01F10A98884366
:100830000A900E984068C0F300100D9900FA01F17B
:100840000A9808430A900A980F994860FFE70E98A3
:10085000406800F00300032818D0FFE70F98C06835
:100860000A900D984100032000FA01F10A9888438C
:100870000A900E9880680D99490000FA01F10A98D3
:1008800008430A900A980F99C860FFE70E984068DD
:1008900000F00300022826D1FFE70F980D996FF0B2
:1008A000030202EA51010844006A0A900D9800F020
:1008B000070081000F2000FA01F10A9888430A908E
:1008C0000E9800690D9901F00701890000FA01F105
:1008D0000A9808430A900A980F990D9B02EA53025E
:1008E00011440862FFE70F9800680A900D984100D4
:1008F000032000FA01F10A9888430A900E98406894
:1009000000F003000D99490000FA01F10A9808432C
:100910000A900A980F9908600E988079800700283D
:1009200000F02881FFE7FFE743F64400C4F202002D
:10093000016841F480410160006800F48040099042
:100940000998FFE70D9820F0030043F60801C4F270
:10095000010140580A900D9800F0030081000F201B
:1009600000FA01F10A9888430A900F980021C4F216
:100970000201884203D1FFE7002008907AE00F9837
:1009800040F20041C4F20201884203D1FFE7012096
:1009900007906CE00F9840F60001C4F20201884213
:1009A00003D1FFE7022006905EE00F9840F6004179
:1009B000C4F20201884203D1FFE70320059050E012
:1009C0000F9841F20001C4F20201884203D1FFE70F
:1009D0000420049042E00F9841F20041C4F2020169
:1009E000884203D1FFE70520039034E00F9841F6D9
:1009F0000001C4F20201884203D1FFE70620029001
:100A000026E00F9841F60041C4F20201884203D16A
:100A1000FFE70720019018E00F9842F20001C4F2AE
:100A20000201884203D1FFE7082000900AE00F99F5
:100A300042F20042C4F202020A20914208BF092099
:100A40000090FFE700980190FFE701980290FFE710
:100A500002980390FFE703980490FFE7049805903D
:100A6000FFE705980690FFE706980790FFE70798CD
:100A70000890FFE70898C0B20D9901F003018900C2
:100A800000FA01F10A9808430A900A980D9921F09A
:100A9000030143F60802C4F20102885043F60840FD
:100AA000C4F2010000680A900B990A9888430A90E2
:100AB0000E988079C006002805D5FFE70B990A98A3
:100AC00008430A90FFE70A9843F60841C4F201017F
:100AD000086043F60C40C4F2010000680A900B99CC
:100AE0000A9888430A900E9880798006002805D5D8
:100AF000FFE70B990A9808430A90FFE70A9843F624
:100B00000C41C4F20101086043F60440C4F2010044
:100B100000680A900B990A9888430A900E98807989
:100B20008007002805D5FFE70B990A9808430A902B
:100B3000FFE70A9843F60441C4F20101086043F656
:100B40000040C4F2010000680A900B990A9888439B
:100B50000A900E988079C00728B1FFE70B990A9890
:100B600008430A90FFE70A9843F60041C4F20101E6
:100B70000860FFE7FFE7FFE70D9801300D9015E6ED
:100B800010B070470000000083B00290ADF806106E
:100B900002980069BDF80610084203D0FFE7012063
:100BA000009002E000200090FFE7009803B070473B
:100BB00083B00290ADF80610029840690090009A48
:100BC000BDF8060002EA0001904340EA01400299A4
:100BD000886103B07047000083B00290ADF8061042
:100BE0000092009828B1FFE7BDF8060002998861DD
:100BF00005E0BDF80600000402998861FFE703B034
:100C0000704700000000000080B543F60041C4F2C8
:100C10000201086840F400700860086840F48070C1
:100C20000860032000F034F80F2000F005F800F011
:100C30000BF8002080BD000081B00090002001B0C2
:100C40007047000000000000704700000000000036
:100C500080B582B00190019800F06AFA02B080BDC0
:100C600080B586B00590049103920020029000F0B8
:100C700077FA02900598019002980499039A00F07F
:100C800077F80146019800F073FA06B080BD0000C5
:100C900080B582B00190019800F08AFA02B080BD60
:100CA000EFF3108008B101207047EFF311800028A6
:100CB00018BF0120704710B500F1280151E8002F3E
:100CC00012B9BFF32F8F04E0531E41E8003404B182
:100CD000F4E772B12C300121006850B1821CD2E8D7
:100CE0004F3FC2E8441F04B1F9E71A0602D00830AA
:100CF000F2E7002010BD70B5024652F8305F4DB1EA
:100D0000CC7800235DB12E46ED78A5420DD27568F2
:100D10003346F7E70023C162C1E901330DE0002447
:100D2000C1E9014300F12C0403E0C1E9016306F1CC
:100D300008042160002B18BF1A1D1160283050E8EC
:100D4000001F4A1C40E8002303B1F8E770BDD1E959
:100D5000012312B193608B6800E0C362191D002B60
:100D600008BF00F130010A60704700000000000079
:100D700088B0079006910592079800F0070004904C
:100D80000498C0F10700052803D3FFE70420019071
:100D900004E00498C0F107000190FFE70198039078
:100DA00004980430062803D8FFE70020009003E0F1
:100DB000049803380090FFE7009802900698039982
:100DC000012202FA01F101390840029B984005997D
:100DD0009A40013A1140084308B0704700000000F3
:100DE0004EF21000CEF200000068704700000000D4
:100DF00048F26050C2F20100007870B1FFE748F29B
:100E00006051C2F20101002008704EF60451CEF28A
:100E100000014FF080600860FFE74EF21001CEF253
:100E20000001086840F00100086070470000000001
:100E30004FF0FF307047000084B00290019102989B
:100E400020B9FFE74FF0FF30039031E040F200009F
:100E5000C2F2010000680299B0FBF1F00138009085
:100E60000098B0F1807F04D3FFE74FF0FF3003908C
:100E70001EE04EF62351CEF20001FF2008704EF224
:100E80001001CEF200010620086000984EF2140115
:100E9000CEF2000108604EF21801CEF200010020EF
:100EA000086048F26051C2F2010108700390FFE748
:100EB000039804B070472168D4E90223204600F06B
:100EC000DFBC4DF808EDFFF7EBFE00285DF808EBFE
:100ED0007047002100220646002700F0EFBF6FF0A8
:100EE00005007047204600F03CBF6FF0050010BDC4
:100EF0004DF808ED204600F053FF20465DF808EB62
:100F000000F076BE6FF0030010BD04460078F128B3
:100F1000704700000000000086B000210591049198
:100F2000022003900291019043F60800C4F20200EF
:100F3000006800F00C0005900598009040B1FFE7B4
:100F4000009804280ED0FFE70098082814D059E034
:100F500040F20001C2F2010142F20040C0F2F4008E
:100F6000086059E040F20001C2F2010147F640007A
:100F7000C0F27D1008604FE043F60400C4F20200A6
:100F80000168C1F380510291006800F03F000190B8
:100F9000029888B1FFE7019947F64000C0F27D1042
:100FA000B0FBF1F043F60401C4F202010968C1F399
:100FB00088114843049010E0019942F20040C0F2C9
:100FC000F400B0FBF1F043F60401C4F20201096839
:100FD000C1F3881148430490FFE743F60400C4F2CC
:100FE0000200006800F44031022000EBD130039091
:100FF00004980399B0FBF1F040F20001C2F2010144
:10100000086009E040F20001C2F2010142F2004032
:10101000C0F2F4000860FFE743F60800C4F20200E3
:101020000068C0B2010942F6AC50C0F60000405C56
:101030000590059A40F20001C2F201010868D04013
:10104000086006B0704700004EF68851CEF20001ED
:10105000086840F470000860704710B5930712D418
:1010600000F12803D00715D153E8000F084203D13F
:10107000BFF32F8F002005E020EA010243E800249F
:1010800004B1F1E710BD806AD20700EA010312D172
:10109000A3B912E053E8000F00EA01028A4203D02C
:1010A000BFF32F8F002005E020EA010243E800246F
:1010B00004B1EFE710BD8B4200D0002010BD00004E
:1010C000B0B5194A0023443215462C683CB1256955
:1010D000A94209D3491B04F10C052346F5E7002476
:1010E0000161C0E9023406E00161C0E90234A06098
:1010F0002569691A2161002B18BF03F10C021060E9
:10110000B0BD00BFC16829B1826803698A600A69FD
:101110001A440A618068EC4A00F10C03002808BFF9
:1011200002F1440319607047040001200000000030
:1011300081B00090009800280DD4FFE7009901F0DD
:101140001F02012090404A094EF20011CEF2000128
:1011500041F82200FFE701B07047000000000000E6
:101160004EF60C50CEF200000068C0F3022070472B
:1011700082B0019000910198002809D4FFE70098FF
:10118000000101994EF20042CEF2000288540AE0BA
:1011900000980001019901F00F014EF61452CEF2B1
:1011A00000028854FFE702B0704700000000000012
:1011B00083B00290029800F0070000904EF60C51A8
:1011C000CEF200010868019001984FF6FF0210402E
:1011D00001900198009A40EA02200022C0F2FA52DF
:1011E000104301900198086003B0704700000000B0
:1011F00080B582B0019000F063FF38B1FFE701983D
:1012000000684FF0FF3100F001FAFFE702B080BD47
:1012100080B582B001900198006800F009FA02B030
:1012200080BD00000000000080B582B00190002069
:1012300000F010FA019908600198006818B1FFE702
:101240000120009006E0002000900199052000F0A8
:1012500060FAFFE7009802B080BD000000000000C7
:1012600080B582B0019000F02BFF28B1FFE7019814
:10127000006800F001FAFFE702B080BD0000000046
:1012800080B500F023F980BD82B0019042F2F900F0
:10129000C0F6000000220092114600F0C5FE009A40
:1012A00048F67C41C2F20101086041F24930C0F6C3
:1012B0000000114600F0B8FE40F21051C2F20101E8
:1012C0000860FFE7FEE7000080B584B000200290D0
:1012D0000390FFF721FEFFF797FCFFF7A5F9029AAD
:1012E000072001901146FFF7BBFC0198FFF7B0FC07
:1012F00000F0ECF8029800F077F8029A40F20C51F6
:10130000C2F20101086041F29930C0F6000042F6D5
:101310008063C0F60003114600F0AEFE029940F271
:101320001452C2F20102106041F28920C0F600009E
:1013300042F6BC52C0F6000200F076FE00F0DCF887
:10134000FFE7FEE70000000082B00190FFE740F2F7
:101350000C50C2F201000068012100224FF0FF335F
:1013600000F07AF840F21850C2F20100007801282B
:1013700010D1FFE740F21450C2F20100006842F2BF
:10138000107100F08BFE40F21851C2F201010020F2
:101390000870FFE7DBE7000080B582B0019048F6F7
:1013A0007C40C2F20100006800F054FE41F20000EF
:1013B000C4F202004FF480510122FFF70DFC02B08D
:1013C00080BD0000EFF3058129B9EFF3108111B959
:1013D000EFF3118111B16FF005007047DFF804C021
:1013E00000DF704743210008EFF3058129B9EFF3CF
:1013F000108111B9EFF3118109B100207047DFF8B6
:1014000008C000DF704700BF59210008B0B5EFF3F6
:1014100005822AB9EFF3108212B9EFF31182AAB153
:101420006FF0030480B100290ED40278F32A0BD1A7
:1014300000F10C0252E8003F43EA010442E8004593
:1014400005B1F7E700F03CFB2046B0BDDFF804C073
:1014500000DFB0BDC121000810B5EFF305842CB941
:10146000EFF3108414B9EFF311848CB16FF003041F
:1014700060B100290AD44BB90378F32B06D1FFF7EA
:10148000A0F80446002808BF6FF00204204610BDF3
:10149000DFF804C000DF10BD41220008EFF3058033
:1014A00048B9EFF3108030B9EFF3118018B9EFF3BA
:1014B0001480C00702D10448007A7047DFF804C0E6
:1014C00000DF7047992200080400012080B500F079
:1014D0001FF9EFF3058028B9EFF3108010B9EFF38F
:1014E000118010B16FF0050080BDDFF808C000DF8B
:1014F00080BD00BFA5220008EFF3058028B9EFF3F7
:10150000108010B9EFF3118008B1FFF7E8BCDFF8E5
:1015100008C000DF704700BFA9230008F8B50546E2
:10152000EFF3058014460E4628B9EFF3108010B98A
:10153000EFF31180F0B1D5B12878FA2817D16FF008
:101540000300EEB1E3B92846FFF7B5FBC8B16A6AFC
:10155000074600F10C013046FEF722FF0CB1F87887
:1015600020703846FD6000F0ABFA0020F8BD6FF047
:101570000300F8BD2846DFF810C03146224600DFE0
:10158000F8BD6FF00200F8BD1D2400082DE9F04100
:101590000646EFF3058090460D4628B9EFF310801C
:1015A00010B9EFF3118018B3EEB13078FA281AD1E0
:1015B0006FF00307CDB1C3B906F10C0000F01EF9BE
:1015C000F0B1726A04460C302946FEF7E9FEF920B4
:1015D0000027C4E9015684F8038020702046A770D4
:1015E00000F06EFA01E06FF003073846BDE8F081C5
:1015F0003046DFF814C02946424600DFBDE8F081DE
:101600006FF00207F1E700BF09260008EFF305823B
:101610002AB9EFF3108212B9EFF3118212B16FF011
:1016200005007047DFF804C000DF7047B1260008EE
:10163000EFF3058129B9EFF3108111B9EFF31181AF
:1016400011B16FF005007047DFF804C000DF70478C
:1016500041270008EFF3058129B9EFF3108111B993
:10166000EFF3118109B100207047DFF808C000DFF7
:10167000704700BFF1270008EFF3058129B9EFF3A8
:10168000108111B9EFF3118111B16FF005007047AE
:10169000DFF804C000DF7047592800080000000090
:1016A00083B002900191029801380146009105280B
:1016B0000BD80099DFE801F003040506070805E0F0
:1016C00004E003E002E001E000E0FFE7FFE7FEE7FF
:1016D000F8B5876804469FB13D46BF68204695F837
:1016E0002320696AFEF76DFF0028F4D006462846DD
:1016F00000F056FB28463146002200F0DFFBEAE707
:10170000F8BD00000000000081B00090FFE7FEE798
:101710007047FFF7C5BFF0B5A8B10023A1B1032AF8
:1017200012D803460F3153F8085F21F007012C4609
:101730005D6825F003061E44A61B8E4206D225686E
:101740002346002DF3D100231846F0BDD0E90076E2
:101750000E444660384450F8047CB74202D2083840
:1017600046605D684DB125F003001143C450184434
:10177000186000F108034160E6E741EA02005860A2
:101780000833E1E7B0B560B159B100F10804A1F147
:1017900008020023944206D0254624682B46002CDC
:1017A000F8D10020B0BD51F8045C446825F0030571
:1017B000641B446013B11068186002E0002041F817
:1017C000040C0120B0BD02460020B2B142EA010380
:1017D00013F0070311D118290FD310B58B18A3F1FB
:1017E0000804946043F8080C10249368C2E90014BC
:1017F0005C60D0600120BDE81040704710B5002843
:1018000017D0014600F1140252E8000F10B9BFF3DF
:101810002F8F04E0036842E8003404B1F4E740B1DC
:10182000043151E8002F531C41E8003404B1F8E7BB
:1018300010BD002010BDB0B500281ED0C2688A427D
:101840001BD802698A4218D900F1140213680B6090
:10185000BFF35F8F52E8003F0C689C42F6D142E82C
:10186000001505B1F2E7043050E8001F4A1E40E8B9
:10187000002303B1F8E70020B0BD6FF00300B0BD56
:10188000B0B598B191B18AB1044600209BB1C4E9CA
:10189000001004F1080002FB013563612CC0481EF2
:1018A00030B19918013819600B46F9E70020B0BD36
:1018B000002018600120B0BDF8B50446807848B318
:1018C000E56821462846FFF742FA002005F10C069C
:1018D000214620703046FFF7AEFFA868C8B13046F9
:1018E000FFF78CFFA8B10446284600F03AFAFFF74C
:1018F000F0FA304600F08EFA41686A6A064604F152
:101900000C00FEF74DFDF920A7702070B068E07064
:1019100021E0F8BDA568A868E8B1407883281AD10D
:10192000284600F01EFAFFF7D4FA304600F072FAAB
:10193000064640686A6A04F10C01FEF731FDB068A2
:1019400008B1E1780170277005F10C002146BDE86F
:10195000F840FFF770BF28462146BDE8F840FFF782
:10196000CAB9000080B507480821D0E91A2000F064
:10197000BBFDF349C8640021002808BF4FF0FF31C8
:10198000084680BD042D00082DE9F04104460027DB
:101990004FF00108D4B125466469E8780007F9D50D
:1019A000A8682F760028F5D0284600F0DAF9002143
:1019B0000022064600F082FAF06AC5E90367686112
:1019C00000B1056185F81880F562E3E7BDE8F081B4
:1019D00010B5C278920719D5C068C36A90F8212063
:1019E000DC78A4070AD59C688C4208BF8C682CB1AF
:1019F00094F9204052B29442C8BF22465B69002B42
:101A0000EED190F82030D1B28B4200D110BD80F8D9
:101A10002020BDE8104000F0CDB900002DE9F041D4
:101A20001D4C40F265170FF2740804F1560504F1DD
:101A30005A06B4F85400D5E85F1F11B9BFF32F8FD1
:101A400004E04A1EC5E8532F03B1F4E709041DD092
:101A5000D6E85F1F4A1C904200D80022C6E8532FE8
:101A600003B1F5E788B2E16D51F8200070B101785B
:101A70000F31CAB2082ADCD827FA02F2D207D8D02E
:101A800049B258F8211009688847D2E70020BDE81C
:101A9000F04100F001B900BF040001206400012002
:101AA000640001206800012064000120640001201E
:101AB0006C000120700001206400012074000120EE
:101AC00070B50146ED4800F15603B0F85420D3E854
:101AD0005F4FA24202D8BFF32F8F04E0651CC3E81A
:101AE000565F06B1F3E7A3B2934214D200F1580354
:101AF000D3E85F4F651CAA4200D80025C3E8565FB3
:101B000006B1F5E7A2B2C36D43F82210417A39B1AC
:101B10000121817270BD0220BDE87040FFF7F9BD60
:101B200002484FF08051016070BD00BF04ED00E03D
:101B300080B582B00190019801F0B2F802B080BD8A
:101B400010B5012190F920304170DB491C310A4663
:101B5000896841B191F920409C42F8DCC0E9021249
:101B600090600C3104E00021C0E9021202F108018A
:101B7000086010BDB0B54A1C0DD0CF4A00232C32EE
:101B800015462C68E4B1E569A94221D3491B04F14B
:101B900010052346F5E7F249002301F1300214460F
:101BA0001946236803F11004002BF9D14FF0FF33DD
:101BB000C3610023C0E90431C1B101F1100215E095
:101BC000C161C0E90443002B18BF03F110020DE00E
:101BD000002BC0E90443C16118BF03F1100210607B
:101BE0002CB1E269511A04F11402E1611060B0BD38
:101BF000C2690169531C0AD021B143694B61CB69A9
:101C00001A44CA6142693AB9DC4AD16207E009B1B3
:101C100042694A6142692AB100231161436100218E
:101C2000C1617047D54A1163F9E700BFB0B5F84DFF
:101C3000EC6A1CB1E0690138E06102D0B0BDE06936
:101C4000A8B96078532808D120460178F12901D13C
:101C5000C068FAE72146FFF7BBFE204600F0A0F877
:101C6000204600F0CFF82469002CE8D101E00020E4
:101C70006061EC62B0BD00BFC178C90708BF00F069
:101C800035B80021C16004214170E1494A6B82608E
:101C900002B1D06048637047B0B50546DC4844697E
:101CA000017A65B1022905D194F9200095F9201037
:101CB000814211DC2846BDE8B04000F0A3B80229FB
:101CC00012D1456A85B194F9200095F9201081421E
:101CD0000ADD284600F064F82046FFF731FF284669
:101CE000BDE8B04000F0BCB8B0BD00BF10B50446C0
:101CF000FFF71EFF00202080A07881070CD5216B04
:101D0000C00604D4C248406FFFF73CFD04E0C04861
:101D1000D0F88400FFF78FFDA078C00708BF10BD82
:101D2000BB49D1F8880020B12146BDE81040FFF73B
:101D300082BDD1F880002146BDE81040FFF722BDEA
:101D40000400012010B50446806918B1002100226A
:101D500000F0B4F86078232802D1A06800218161E6
:101D600010BD0146806882688A6002B1D16000219E
:101D7000C160704710B591F920300246806840B1CB
:101D800090F920409C42F8DAC1E9020291600C30DF
:101D900004E00020C1E9020202F10800016010BD68
:101DA000C16831B182688A60826802B1D160002165
:101DB000C1607047B0B50446054625B12878F128C2
:101DC00002D1ED68F9E7B0BD2046FFF7E9FF2846EC
:101DD0002146BDE8B040FFF7CDBF10B504464078BE
:101DE00033280DD194F82320616A2046FFF735F996
:101DF00030B1014620460022BDE8104000F05EB838
:101E000010BD0000014601204870EB481C30FFF770
:101E1000B1BF00BF90F82210C9064FF0200158BF93
:101E20006021806B0844704770B50B4C0B48002153
:101E3000A26D666E00F090FDDF4DA86246B1B0471E
:101E400040B9E96CD4E9172000F086FDA86408B118
:101E5000012070BD002070BD042D00080917000886
:101E600002214170C178490754BF0321022181F347
:101E70001488D149BFF36F8F886170470400012037
:101E800010B5CD4C227A022A13D1626A8AB16269F6
:101E900050701046FFF76EFE606A8168616211B192
:101EA00004F11C02CA600021C160FFF7D9FF0120C4
:101EB00010BD002010BD00BF04000120B0B50446D5
:101EC00090F822001546C0064FF0200058BF602051
:101ED000A26B81502046FFF78BFE20461DB1BDE866
:101EE000B040FFF7D9BEBDE8B040FFF78BBF0000A0
:101EF000B0B5FEF775FFEA4DE8680130E860FFF71E
:101F000095FE0020FFF7C8FE286D00B18047296CC0
:101F100029B3A869EA6B904205D0C269E863002A38
:101F200018BF114601E0C16911B10139C16116D173
:101F3000297A022913D16C6A8CB190F8200094F8A8
:101F4000201081420BD12046FFF72AFFE86BFFF7F4
:101F500059FF2046FFF784FF286CEC63E061B0BDB9
:101F60000400012080B5FFF7FDFC10B14FF0FF30F9
:101F700080BDCB4802490165002080BD04000120DE
:101F8000A51F000882B004466D462046294600225F
:101F90004FF0FF33FFF7C2FA0028F6D1DDE9001059
:101FA0008847F2E72DE9F041BD4D6C6C74B32069B0
:101FB0006E694FF001080138206134B3206920BBFD
:101FC000E06808B1A16881606864E86C04F11801F8
:101FD00000220023FFF7DAFA60B1D5E90570214647
:101FE00068610320FFF795FB696986EA07000843EB
:101FF00008BF0646E078C0070FBF84F8018061691A
:102000002046FFF75DF86C6CD7E76E61BDE8F081A4
:1020100004000120884700F001F80000DFF804C048
:1020200000DFFEE70D29000870B50646EFF30580D6
:1020300020B914460D46FEF744FF01D0002070BDC4
:102040003046DFF80CC02946224600DF70BD00BFD5
:102050005929000810B50446EFF3058010B9FEF7C2
:1020600030FF01D0FEF741BF2046DFF808C000DF97
:1020700010BD00BF512B000810B5EFF305842CB93B
:10208000EFF3108414B9EFF311840CB1002010BDEC
:10209000DFF804C000DF10BDC12B0008EFF305829C
:1020A0002AB9EFF3108212B9EFF3118212B16FF077
:1020B00005007047DFF804C000DF70473D2C0008C2
:1020C00080B548F67840C2F20100007868B9FFE7B1
:1020D000FFF7E4F9022807DBFFE748F67841C2F290
:1020E000010101200870FFE7FFE748F67840C2F2DF
:1020F0000100007880BD000082B0019042F6894066
:10210000C0F6000042F67063C0F600030121002211
:10211000FFF7B2FF014648F68040C2F201000160BD
:1021200000684FF47A71FFF7B9FFFFE741F2004012
:10213000C4F202000421FEF73BFD6420FFF742F9E0
:10214000F4E730B180B501461320FFF799FE01385E
:1021500080BD6FF00300704710B558B1014680791B
:10216000C00626D4D1E902020C6800B30021102A6F
:1021700010D01FE00024DB49D1F8900010B1FFF728
:102180003DFB05E0D1F8800010210122FFF7C3FAE2
:1021900078B1012100228170F3210170C0E9014270
:1021A000C260C270CF49054A4A66014602E0002A71
:1021B000E1D00021084610BD04000120D11600081E
:1021C0002DE9F041002831D005466FF003000029C9
:1021D00034D42A78F32A31D105F10C0050E8002FCD
:1021E00042EA010440E8004303B1F7E7A046AC68C7
:1021F00004B32646A468284696F82320716AFEF7A1
:10220000E0F90028F4D0074696F823008007384606
:102210005CBF706A27EA000080463046FFF7C0FDC9
:10222000304639460022FFF749FEE1E76FF0030030
:10223000BDE8F0810020FFF72FFD4046BDE8F081AA
:10224000F8B580B106460C466FF00300002909D4AA
:102250003178F32906D1304621461F461546FEF750
:10226000B0F918B1F8BD6FF00300F8BD87B1432095
:102270003946FFF705FE40B1E14847693046394627
:10228000FFF778FD87F823507C626FF00100F8BDFE
:102290006FF00200F8BD00BFD948007A704700BF58
:1022A000040001202DE9F843D54F387A28B10128E0
:1022B00075D04FF0FF30BDE8F88307F108009C218E
:1022C000FEF7D5F8DFF87888B8F81000D8E90B41A8
:1022D000A7F85400D8E9020238642046FA65FFF7EF
:1022E00072FA08B1C7F88040D8E90541DFF8B49028
:1022F000D8E907562046C847D7F880100028284656
:1023000018BF214679673146C847D7F880100028A2
:1023100018BF2946B967D8E909412046C847D7F808
:102320008010002818BF2146D8F83440F9671CB146
:10233000FEF7C1FDC7F88440D8F838401CB1FEF75D
:10234000BAFDC7F88840D8F83C401CB1FEF7B3FD91
:10235000C7F88C40D8F840401CB1FEF7ACFDC7F878
:102360009040D8F844401CB1FEF7A5FDC7F8944052
:10237000D8F848401CB1FEF79EFDC7F89840D8F841
:102380004C401CB1FEF797FDC7F89C40D8F8504070
:102390001CB1FEF790FDC7F8A04001203872002064
:1023A000BDE8F883C717000810B5E44C207A01286F
:1023B0001CD1FFF739FDC8B11548FF218175817D1A
:1023C000026881F0FF01C2F30222B1FA81F1C1F18A
:1023D00020018A4228BF511CFE2202FA01F1C17479
:1023E0000C480D494068FEF727FD10B14FF0FF3053
:1023F00010BDFEF71DFD2061FEF7FAFC04F11C0084
:10240000FFF7AFFCFFF72CFD02202072002010BD6B
:102410000CED00E0042D0008850300082DE9F041D3
:10242000002848D004460078FA2844D10F460029F5
:1024300041D020461E461546FEF73DFC00283FD001
:10244000804620464146FEF782FC626A08F10C0194
:102450003846FDF7A5FF15B198F80300287004F180
:102460000C0600254146304688F80050FFF7E3F996
:10247000A06810B33046FFF7C1F90025E8B1064661
:10248000FEF730FD002101220746FFF717FD384611
:10249000FFF7C0FC4168626A074606F10C00FDF7D1
:1024A0007FFFF9203146B5703070B868F070204673
:1024B000FEF721FC01E06FF003052846BDE8F0813E
:1024C00066B183203146FFF7DBFC20B1E14841696A
:1024D0002046FFF74FFC6FF00105EEE76FF00205B5
:1024E000EBE700BF040001202DE9F84F00285FD082
:1024F0000D4600295CD00446B0FA80F0B5FA85F1AB
:102500000844202854D3E81C20F0030000F10C08F4
:1025100008FB04F962B19079C00649D4D2E902619E
:10252000D2E90470D2F800A05EB334292AD03FE08B
:102530004FF0000A0027F449D1F8A00028B1FFF7B6
:102540005DF906464FF0010B08E0D1F88000342118
:1025500001224FF0010BFFF7DEF80646AEB3A7BB32
:10256000CDF800A0DFF818A749460022DAF87C0071
:10257000FFF7D1F8074678B138464946FDF755FFD1
:102580001FE0A9B997B1B90712D1484510D3002E61
:10259000D1D04FF0000BE1E7BBF1000F10D0DAF81B
:1025A000A00040B13146FFF746F909E00028EED01F
:1025B0000020BDE8F88FDAF880003146FFF7E2F836
:1025C0000026DDF800A00BF1020B0020AEB1C6E939
:1025D0000950C6E90B00C6E901A0F070FA202146B7
:1025E00042463B4686F802B0307006F10C00FFF719
:1025F00047F9D848034901673046BDE8F88F00BF66
:1026000004000120B91800082DE9F04118B3044670
:102610000078FA281FD10F46E9B1A0681E469046FF
:10262000F0B1407883281BD1FEF75CFC0021012229
:1026300005460026FFF742FC2846FFF7EBFB054660
:102640004068626A3946FDF7ABFEA86828B180F899
:102650000080002601E06FF003063046BDE8F081FF
:1026600004F10C00FFF7CAF880B1626A05460C302D
:102670003946FDF795FEF9200026294685F80380A6
:1026800028702046AE70FEF736FBE6E766B1932071
:102690003146FFF7F5FB20B1AE4841692046FFF710
:1026A00069FB6FF00106D8E76FF00206D5E700BFBF
:1026B00070B50446A74845694DB32CB32078F5287A
:1026C00022D1207E30B30E46E178CA0702D0E268FC
:1026D000AA422BD066B388070AD5E06895F9201086
:1026E00090F920208A4203DA80F82010FFF762FB7D
:1026F00053203146FFF7C4FB18B120462946FFF7A7
:1027000039FB6FF0010070BD6FF0030070BD4FF03A
:10271000FF3070BD0020C4E90350E86A606100B179
:1027200004610120EC622076002070BDFF2802D1F8
:102730006FF0020070BD0130F5E700BF040001201A
:10274000B0B520B304460078F52820D1207ED0B360
:102750006169E06809B122690A6100F12C0223690C
:102760001546002B18BF03F11405296090F82110BD
:1027700012687AB1D3789B0707D593682BB193F988
:10278000203049B28B42C8BF19461432F0E76FF0CF
:102790000300B0BD90F82030CAB293420CD080F84C
:1027A0002010FFF707FB07E02046FFF7DAFA6FF08B
:1027B00002010022FFF782FBA0680028F4D100206C
:1027C0002076FFF769FAA17800202070C9070DD0A4
:1027D000FA49D1F8940018B12146FFF72CF804E02B
:1027E000D1F880002146FEF7CDFF0020B0BD00BF2C
:1027F00070B550B14568E90229D4D0E902410668B4
:102800001CB300201C2912D070BD00250026EB4906
:10281000D1F8940010B1FEF7F1FF05E0D1F8800087
:102820001C210122FEF777FF044680B10120A07031
:10283000F52011216660207005F00F00E07004F1B2
:102840000800FDF714FE204670BD0029DFD00020EF
:1028500070BD00BF0400012070B50446F648406911
:1028600070B154B12178F52907D1217E11B1E26808
:10287000824209D06FF0020404E06FF0030401E02B
:102880004FF0FF34204670BD01392176090601D092
:102890000024F7E7616909B122690A6100F12C029D
:1028A00023691546002B18BF03F11405296090F821
:1028B0002110126862B1D3789B0707D593682BB1BA
:1028C00093F9203049B28B42C8BF19461432F0E761
:1028D00080F82010A06888B12046FFF742FA002156
:1028E000002205460026FFF7E9FAE86AC4E9035624
:1028F000606100B104610120EC62207600200024B8
:10290000FFF7CAF9BEE700BF0400012070B5DC4D37
:10291000287A02281CD1686AD0B16C69E06AFFF796
:1029200033F82046FFF70EFA686A8168696211B1D0
:1029300005F11C02CA600026C660FFF791FAEFF3AA
:102940000980A0636E612046BDE87040FFF794B92E
:1029500070BD00BF040001202DE9FE4F002847D0C4
:10296000884604466AB1D2E9001BD2E90496D2F83F
:1029700018A095685FEA4B7020D45FEACB2021D580
:1029800036E000214FF0180A00264FF000094FF002
:10299000000B00256A480078C0070CBF4BF0020B03
:1029A0004BF0040B2EB1700722D1482E20D3002EFD
:1029B0001ED4029105B300212F462EE05F481BEA8A
:1029C000000F15D1D06815B1502801D010E078B9AA
:1029D000B9F1000F03D05FEA497009D146B1BAF1ED
:1029E000000F3DD0BAF1010F02DBBAF1380F39D92F
:1029F00000252846BDE8FE8FA149D1F8880020B106
:102A0000FEF7FCFE0746012107E0D1F880005021C7
:102A10000122FEF780FE01210746DFB3B9F1000F66
:102A200038D101914EB1964831460022406FFEF7F1
:102A300072FE80B1019981462AE091484049D0F860
:102A400084004E6D0028EED0FEF7D8FE18B1019933
:102A5000814610311CE055B100214FF0000916E00D
:102A60004FF0180A1BF0060F7FF49CAF92E78449E1
:102A7000D1F8880018B13946FEF7DDFE04E0D1F840
:102A800080003946FEF77EFE4FF000090121002745
:102A900041F002010025002FABD00298B970182137
:102AA000786040F2F11038800BF00F00F87007F1F9
:102AB0000800FDF7DCFC09EB0600C7F82350C7F857
:102AC0002750C7F82B5087F82F50C7E90C96FD21E7
:102AD00087F821A087F820A0403887F82210C7E99E
:102AE0000E041848C9F8000015480078400717D4AC
:102AF000B86B002100220E2A03D040F822100132C8
:102B0000F9E7114A4FF08071C0E90884C0E90E214D
:102B10005B480E4901663846FFF7BEF83D4668E758
:102B20006FF0100009F104014FF0CC3200EB960079
:102B30000028DDD004C10138FAE700BF0200100010
:102B4000042D0008A52E5AE215200008DB1D000800
:102B500010B5A0B1FEF7D9F911D1607800F00F00DF
:102B600001280ED0032810D0022805D14448017A4C
:102B7000022901D1406A50B96FF0020010BDFEF782
:102B8000C1B92046FFF70CF901E0FEF7B1F9607812
:102B900002280AD13A49486A82684A620AB11C315D
:102BA000D1600021C160FFF75BF903204FF0FF31D6
:102BB00060702046FEF7DEFF002010BD04000120FB
:102BC000F8B5A8B30C46012932D81546064653B1CC
:102BD0009879C0062CD4D3E902021F6830B30021D3
:102BE000202A10D025E000272549D1F88C0010B10B
:102BF000FEF704FE05E0D1F8800020210122FEF757
:102C00008AFDA8B1012181704FF4F9710022C561DC
:102C10000180611EC0E90172C0E90322C0E90526F6
:102C2000B1FA81F14909C170014602E0002ADBD006
:102C300000210846F8BD00BF04000120B0B568B10E
:102C400005460078F22809D10C4639B16878022887
:102C500007D128466C61FEF755FA08E06FF00300D3
:102C6000B0BD0748006D40B102206C616870284615
:102C70002146FEF725FA0020B0BD6FF00200B0BD7E
:102C8000040001200000000081B0009040F20851D3
:102C9000C2F2010108780130087001B070470000ED
:102CA00082B0019000200090FFE70098032819D817
:102CB000FFE7009948F26450C2F2010050F8210089
:102CC0000199884209D1FFE7009A48F26451C2F2A3
:102CD0000101002041F8220004E0FFE700980130E4
:102CE0000090E2E702B07047F1EE100A4FF6FF7174
:102CF000C0F2C03120EA010040F04070E1EE100A5D
:102D00007047000002000000E8030000050000001A
:102D1000200501201000000000000000000000005D
:102D200000000000000000000000000000000000A3
:102D3000600501200080000000000000000000008D
:102D40000000000000000000000000000000000083
:102D50000000000000000000000C0000E42D00084E
:102D6000202E0008851F0008651F0008082E000897
:102D700004000000D88701207888012000000000AE
:102D80000000000000000000000000000000000043
:102D90000000000000000000000000000000000033
:102DA00000000000548701208887012000000000F7
:102DB00000000000010203040607080900000000EB
:102DC00000000000000000000000000008010120D9
:102DD00000040000000000000000000000000000EF
:102DE000000000000000000000000000D887012063
:102DF000500000007888012000020000010000005F
:102E000000000000000000000000000000000000C2
:102E10005487012034000000888701205000000002
:102E20000000000000000000288801205000000081
:102E3000788A012000020000280000000000000045
:102E400000000000506572696F6469632054696D09
:102E50006572004F6E6573686F742054696D65729A
:102E6000000000005254582056352E382E300000F5
:102E7000442E0008000000000000000000000000D8
:102E8000532E0008000000000000000000000000B9
:102E9000B02E000800000120A80000002C0200084D
:102EA000582F0008A8000120E09100004C02000803
:102EB0000024F400642E00080029FC020000000039
:102EC0000000000000000000000000000000000002
:102ED00000000000000000000000000000000000F2
:102EE00000000000000000000000000000000000E2
:102EF00000000000000000000000000000000000D2
:102F000000000000000000000000000000000000C1
:102F100000000000000000000000000000000000B1
:102F200000000000000000000000000000000000A1
:102F30000000000000000000000000000000000091
:102F40000000000000000000000000000000000081
:082F5000000000000000000079
:04000005080001C925
:00000001FF
