:020000040800F2
:1000000070060120950200089D0200089F0200086A
:10001000A1020008A3020008A502000800000000D9
:10002000000000000000000000000000A70200081F
:10003000A902000800000000AB020008AD020008A1
:10004000AF020008AF020008AF020008AF020008CC
:10005000AF020008AF020008AF020008AF020008BC
:10006000AF020008AF020008AF020008AF020008AC
:10007000AF020008AF020008AF020008AF0200089C
:10008000AF020008AF020008AF020008AF0200088C
:10009000AF020008AF020008AF020008AF0200087C
:1000A000AF020008AF020008AF020008AF0200086C
:1000B000AF020008AF020008AF020008AF0200085C
:1000C000AF020008AF020008AF020008AF0200084C
:1000D000AF020008AF020008AF020008AF0200083C
:1000E000AF020008AF020008AF020008AF0200082C
:1000F000AF020008AF020008AF020008AF0200081C
:10010000AF020008AF020008AF020008AF0200080B
:10011000AF020008AF020008AF020008AF020008FB
:10012000AF020008AF020008AF020008AF020008EB
:10013000AF020008AF020008AF020008AF020008DB
:10014000AF020008AF020008AF020008AF020008CB
:10015000AF020008AF020008AF020008AF020008BB
:10016000AF020008AF020008AF020008AF020008AB
:10017000AF020008AF020008AF0200080000000054
:10018000AF020008AF020008AF020008AF0200088B
:10019000AF020008AF020008AF020008AF0200087B
:1001A0000000000000000000AF020008AF020008DD
:1001B000AF020008AF020008AF020008AF0200085B
:1001C000AF020008AF02000800F002F800F052F899
:1001D00014A696E8000CB244B344DA4501D100F00D
:1001E00049F8BAE80F000FA696E83000A5EB040521
:1001F00004EB0607AAEB0704A7F101074FEA151560
:100200004FEA3414A4F10104AC4201D300F032F8F7
:1002100013F0010F18BFFB1A43F0010300F001F8BF
:10022000DBE718475C1500007C150000103A24BF7E
:1002300078C878C1FAD8520724BF30C830C144BF4B
:1002400004680C6070470000704700000023002421
:1002500000250026103A28BF78C1FBD8520728BFD6
:1002600030C148BF0B6070471FB501F073FA1FBD66
:1002700010B510BD00F0A9F81146FFF7F5FF01F029
:100280002FFA00F0C7F803B4FFF7F2FF03BC00F049
:10029000CFF800000948804709480047FEE7FEE71D
:1002A000FEE7FEE7FEE7FEE7FEE7FEE7FEE7FEE726
:1002B00004480549054A064B7047000089160008A6
:1002C000C9010008700001207006012070020120A1
:1002D0007002012053EA020C00F069802DE9F04B16
:1002E0004FF00006002B1FBFB3FA83F503FA05F4A5
:1002F00024FA05F65E4012BF1643B2FA82F502FAFE
:1003000005F4C5F120051EBF22FA05FC44EA0C04E1
:10031000203556EA044C4FEA144418BF641C4FF0D1
:1003200000084FF00009904271EB030C39D300290B
:1003300019BFB1FA81F701FA07F6B0FA80F700FAAF
:1003400007F6C7F120071EBF20FA07FC46EA0C0695
:100350002037B6FBF4FCA7EB0507103F07F01F0B97
:10036000CBF120062CFA06F60CFA0BFB44BFB34681
:100370000026202FA4BF5E464FF0000B5BEA060C60
:1003800008BF4FF0010B19EB0B0948EB0608ABFB5C
:10039000027C06FB02CC0BFB03CCC01B71EB0C01F7
:1003A000C1E70B46024641464846BDE8F08B13B50F
:1003B000084318BF4FF0FF300146AFF30080BDE89F
:1003C0001C407047704770477047754600F02CF826
:1003D000AE4605006946534620F00700854618B032
:1003E00020B5FFF765FFBDE820404FF000064FF055
:1003F00000074FF000084FF0000BAC46ACE8C00916
:10040000ACE8C009ACE8C009ACE8C00921F00701BC
:100410008D46704710B50446AFF300802046BDE816
:100420001040FFF730BF000000487047080001206F
:1004300001491820ABBEFEE726000200704700000D
:10044000FFE7FEE70000000080B58CB000200B90B5
:100450000A90099008900790FFE743F63000C4F235
:100460000200016841F002010160006800F0020032
:1004700006900698FFE7FFE743F63000C4F202005B
:10048000016841F010010160006800F01000059063
:100490000598FFE741F20000C4F2020003904FF418
:1004A000805101910022029200F026FA0298022166
:1004B00007910890099040F20040C4F2020007A999
:1004C000049100F00DF8019B029A03980499079398
:1004D0000123089309920A9200F002F80CB080BD43
:1004E00090B00F900E9100200D900C900B900A9000
:1004F0000D90FFE70D980F2800F2E681FFE70D99B8
:10050000012088400C900E9800680C9908400B90D0
:100510000B980C99884240F0D281FFE70E98406812
:1005200000F00300012807D0FFE70E98406800F0B4
:10053000030002282FD1FFE70F9880680A900D98DA
:100540004100032000FA01F10A9888430A900E98AE
:10055000C0680D99490000FA01F10A9808430A9011
:100560000A980F9988600F9840680A900D990120A9
:1005700000FA01F10A9888430A900E984068C0F387
:1005800000100D9900FA01F10A9808430A900A98A0
:100590000F994860FFE70E98406800F003000328B9
:1005A00018D0FFE70F98C0680A900D98410003200B
:1005B00000FA01F10A9888430A900E9880680D9914
:1005C000490000FA01F10A9808430A900A980F9925
:1005D000C860FFE70E98406800F00300022826D1AB
:1005E000FFE70F980D996FF0030202EA51010844EA
:1005F000006A0A900D9800F0070081000F2000FAB1
:1006000001F10A9888430A900E9800690D9901F04B
:100610000701890000FA01F10A9808430A900A9834
:100620000F990D9B02EA530211440862FFE70F98ED
:1006300000680A900D984100032000FA01F10A9821
:1006400088430A900E98406800F003000D99490015
:1006500000FA01F10A9808430A900A980F99086075
:100660000E9880798007002800F02881FFE7FFE7D7
:1006700043F64400C4F20200016841F48041016085
:10068000006800F4804009900998FFE70D9820F079
:10069000030043F60801C4F2010140580A900D9886
:1006A00000F0030081000F2000FA01F10A9888434E
:1006B0000A900F980021C4F20201884203D1FFE79B
:1006C000002008907AE00F9840F20041C4F2020145
:1006D000884203D1FFE7012007906CE00F9840F6B5
:1006E0000001C4F20201884203D1FFE70220069014
:1006F0005EE00F9840F60041C4F20201884203D147
:10070000FFE70320059050E00F9841F20001C4F28A
:100710000201884203D1FFE70420049042E00F98D1
:1007200041F20041C4F20201884203D1FFE70520F3
:10073000039034E00F9841F60001C4F202018842B0
:1007400003D1FFE70620029026E00F9841F6004112
:10075000C4F20201884203D1FFE70720019018E0AC
:100760000F9842F20001C4F20201884203D1FFE770
:10077000082000900AE00F9942F20042C4F20202FF
:100780000A20914208BF09200090FFE700980190DD
:10079000FFE701980290FFE702980390FFE70398B4
:1007A0000490FFE704980590FFE705980690FFE79F
:1007B00006980790FFE707980890FFE70898C0B2EF
:1007C0000D9901F00301890000FA01F10A9808432C
:1007D0000A900A980D9921F0030143F60802C4F229
:1007E0000102885043F60840C4F2010000680A90F4
:1007F0000B990A9888430A900E988079C0060028C1
:1008000005D5FFE70B990A9808430A90FFE70A9875
:1008100043F60841C4F20101086043F60C40C4F2FB
:10082000010000680A900B990A9888430A900E9874
:1008300080798006002805D5FFE70B990A980843C0
:100840000A90FFE70A9843F60C41C4F201010860E0
:1008500043F60440C4F2010000680A900B990A981C
:1008600088430A900E9880798007002805D5FFE715
:100870000B990A9808430A90FFE70A9843F6044147
:10088000C4F20101086043F60040C4F201000068B0
:100890000A900B990A9888430A900E988079C007AD
:1008A00028B1FFE70B990A9808430A90FFE70A98D6
:1008B00043F60041C4F201010860FFE7FFE7FFE7EC
:1008C0000D9801300D9015E610B070470000000043
:1008D00083B00290ADF8061002980069BDF80610CA
:1008E000084203D0FFE70120009002E000200090C2
:1008F000FFE7009803B0704783B00290ADF8061090
:100900000092009828B1FFE7BDF8060002998861BF
:1009100005E0BDF80600000402998861FFE703B016
:10092000704700000000000081B040F20000C2F2F9
:1009300001000068800B0090FFE7009888B1FFE796
:1009400000BF00BF00BF00BF00BF00BF00BF00BFAF
:1009500000BF00BF00BF00BFFFE700980138009054
:10096000EBE740F26801C2F201010868013008605B
:1009700001B070470000000080B543F60041C4F2AA
:100980000201086840F400700860086840F4807054
:100990000860032000F090F80F2000F005F800F048
:1009A00087F8002080BD000081B00090002001B0D9
:1009B000704700000000000080B582B001900198EF
:1009C00040784EF69851CEF2000108600198007808
:1009D00098B3FFE7019840684EF69C51CEF20001B3
:1009E0000860DDF804C0CDF800C09CF80C000007DA
:1009F0009CF80B1040EA01609CF800109CF808205D
:100A00009CF809309CF80AE040EACE409CF80DE0E2
:100A100040EA8E409CF80EE040EA4E409CF80FC041
:100A200040EA0C4040EA032040EA420008434EF608
:100A3000A051CEF2000108600BE04EF69C51CEF2C0
:100A40000001002008604EF6A051CEF200010860BF
:100A5000FFE702B080BD0000BFF35F8F4EF6245168
:100A6000CEF20001086820F4803008604EF6945100
:100A7000CEF2000100200860704700000000000076
:100A800081B00090009840F001004EF69451CEF2F3
:100A9000000108604EF62451CEF20001086840F4CF
:100AA00080300860BFF34F8FBFF36F8F01B0704786
:100AB000704700000000000080B582B001900198EE
:100AC00000F0EEFD02B080BD80B584B00020029041
:100AD000FFE743F64000C4F20200016841F0805194
:100AE0000160006800F0805001900198FFE747F234
:100AF0000001C4F20001086840F480300860FFF78C
:100B000013FF0290FFE747F20400C4F20000006800
:100B100000F48030B0F5803F0CD0FFE7FFF704FF12
:100B20000299401AB0F57A7F03D9FFE703200390BA
:100B300026E0E8E747F20001C4F20001086840F44B
:100B400000300860FFF7F0FE0290FFE747F2040074
:100B5000C4F20000006800F40030B0F5003F0CD093
:100B6000FFE7FFF7E1FE0299401AB0F57A7F03D95B
:100B7000FFE70320039003E0E8E700200390FFE78E
:100B8000039804B080BD000080B584B0029001914C
:100B900000200090029818B9FFE7012003901DE1A2
:100BA000019843F60041C4F20201096801F00F0107
:100BB000884215D9FFE743F60040C4F202000168FD
:100BC00021F00F01019A11430160006800F00F004D
:100BD0000199884203D0FFE701200390FEE0FFE780
:100BE00002980078800700282AD5FFE7029800784D
:100BF0004007002809D5FFE743F60801C4F20201C7
:100C0000086840F4E0500860FFE7029800780007A9
:100C1000002809D5FFE743F60801C4F2020108687D
:100C200040F460400860FFE743F60801C4F20201A7
:100C3000086820F0F000029A926810430860FFE70D
:100C400002980078C007002865D0FFE70298406846
:100C5000012810D1FFE743F60000C4F2020000684B
:100C600000F400310020B0EB514F03D1FFE7012029
:100C70000390B3E025E002984068022810D1FFE716
:100C800043F60000C4F20200006800F0007100208A
:100C9000B0EB516F03D1FFE7012003909EE00FE01E
:100CA00043F60000C4F20200006800F002010020D8
:100CB000B0EB510F03D1FFE7012003908EE0FFE777
:100CC000FFE743F60801C4F20201086820F00300C0
:100CD000029A526810430860FFF726FE0090FFE773
:100CE00043F60800C4F20200006800F00C0002990C
:100CF0004968B0EB810F0DD0FFE7FFF715FE0099B3
:100D0000401A41F28931884203D3FFE70320039060
:100D100064E0E5E7FFE7019843F60041C4F2020111
:100D2000096801F00F01884215D2FFE743F6004041
:100D3000C4F20200016821F00F01019A1143016021
:100D4000006800F00F000199884203D0FFE70120FE
:100D5000039043E0FFE702980078400700280CD595
:100D6000FFE743F60801C4F20201086820F4E050EE
:100D7000029AD26810430860FFE7029800780007E3
:100D800000280DD5FFE743F60801C4F20201086808
:100D900020F46040029A126940EAC2000860FFE74E
:100DA00000F022F843F60801C4F202010968C9B252
:100DB0000A0941F26E71C0F60001895CC84040F238
:100DC0000001C2F20101086040F20400C2F2010019
:100DD0000068FFF7E9FD00200390FFE7039804B0E7
:100DE00080BD00000000000080B586B000200590A6
:100DF00004900390029043F60800C4F202000068D9
:100E000000F00C000146019140B1FFE70198042871
:100E10000AD0FFE7019808280CD04FE042F20040CA
:100E2000C0F2F40002904FE047F64000C0F27D109F
:100E3000029049E043F60400C4F20200016801F0A8
:100E40003F01059100684002002813D5FFE743F6F3
:100E50000400C4F202000068C0F3881047F64001A5
:100E6000C0F27D11A0FB0101059A0023FFF732FAC1
:100E7000049012E043F60400C4F202000068C0F3DC
:100E8000881042F20041C0F2F401A0FB0101059A72
:100E90000023FFF71FFA0490FFE743F60400C4F2B3
:100EA0000200006800F44031022000EBD1300390D2
:100EB00004980399B0FBF1F0029005E042F2004083
:100EC000C0F2F4000290FFE7029806B080BD000077
:100ED00080B586B0049000200190049818B9FFE70F
:100EE0000120059068E304980078C007002800F00E
:100EF000B480FFE743F60800C4F20200006800F087
:100F00000C00042813D0FFE743F60800C4F20200E7
:100F1000006800F00C0008281DD1FFE743F604002C
:100F2000C4F2020000684002002814D5FFE743F62F
:100F30000000C4F20200006800F400310020B0EBB1
:100F4000514F07D0FFE70498406818B9FFE7012028
:100F5000059031E380E0FFE704984068B0F5803FFA
:100F600009D1FFE743F60001C4F20201086840F42A
:100F70008030086032E00498406868B9FFE743F6C3
:100F80000001C4F20201086820F48030086008689B
:100F900020F48020086020E004984068B0F5A02F7D
:100FA0000DD1FFE743F60001C4F20201086840F4E6
:100FB00080200860086840F4803008600CE043F648
:100FC0000001C4F20201086820F48030086008685B
:100FD00020F480200860FFE7FFE7FFE7FFE70498C1
:100FE0004068E0B1FFE7FFF79FFC0390FFE743F69F
:100FF0000000C4F20200006800F400310020B0EBF1
:10100000514F0BD1FFE7FFF78FFC0399401A65287A
:1010100003D3FFE703200590CEE2E8E71BE0FFF7EC
:1010200083FC0390FFE743F60000C4F2020000686F
:1010300000F400310020B0EB514F0BD0FFE7FFF779
:1010400073FC0399401A652803D3FFE7032005903A
:10105000B2E2E8E7FFE7FFE7FFE7049800788007E0
:10106000002840F19980FFE743F60800C4F202002F
:10107000006810F00C0F13D0FFE743F60800C4F22D
:101080000200006800F00C0008282BD1FFE743F6AF
:101090000400C4F2020000684002002822D4FFE7E6
:1010A00043F60000C4F20200006800F002010020D4
:1010B000B0EB510F08D0FFE70498C068012803D0B7
:1010C000FFE70120059077E243F60001C4F2020138
:1010D000086820F0F800049A126940EAC20008602B
:1010E000FFE758E00498C06880B3FFE743F60001CB
:1010F000C4F20201086840F001000860FFF714FC28
:101100000390FFE743F60000C4F20200006800F01D
:1011100002010020B0EB510F0BD1FFE7FFF704FCF9
:101120000399401A032803D3FFE70320059043E205
:10113000E8E743F60001C4F20201086820F0F80075
:10114000049A126940EAC200086023E043F60001F5
:10115000C4F20201086820F001000860FFF7E4FB18
:101160000390FFE743F60000C4F20200006800F0BD
:1011700002010020B0EB510F0BD0FFE7FFF7D4FBCB
:101180000399401A032803D3FFE70320059013E2D5
:10119000E8E7FFE7FFE7FFE704980078000700288B
:1011A0004DD5FFE70498406920B3FFE743F674018B
:1011B000C4F20201086840F001000860FFF7B4FBC8
:1011C0000390FFE743F67400C4F20200006800F0E9
:1011D00002010020B0EB510F0BD1FFE7FFF7A4FB9A
:1011E0000399401A032803D3FFE703200590E3E1A6
:1011F000E8E723E043F67401C4F20201086820F036
:1012000001000860FFF790FB0390FFE743F67400CE
:10121000C4F20200006800F002010020B0EB510FA0
:101220000BD0FFE7FFF780FB0399401A032803D395
:10123000FFE703200590BFE1E8E7FFE7FFE7049839
:1012400000784007002840F1D680FFE743F64000D1
:10125000C4F202000068C000002812D4FFE7FFE7D4
:1012600043F64000C4F20200016841F08051016081
:10127000006800F0805000900098FFE70120019086
:10128000FFE747F20000C4F200000068C005002834
:1012900021D4FFE747F20001C4F20001086840F4DE
:1012A00080700860FFF740FB0390FFE747F2000003
:1012B000C4F200000068C00500280BD4FFE7FFF768
:1012C00033FB0399401A652803D3FFE703200590F9
:1012D00072E1EBE7FFE7FFE704988068012809D196
:1012E000FFE743F67001C4F20201086840F0010014
:1012F000086031E00498806868B9FFE743F6700140
:10130000C4F20201086820F001000860086820F0BB
:10131000040008601FE00498806805280DD1FFE7ED
:1013200043F67001C4F20201086840F0040008604E
:10133000086840F0010008600CE043F67001C4F258
:101340000201086820F001000860086820F004002D
:101350000860FFE7FFE7FFE7FFE704988068F0B168
:10136000FFE7FFF7E1FA0390FFE743F67000C4F2EE
:101370000200006800F002010020B0EB510F0DD117
:10138000FFE7FFF7D1FA0399401A41F28931884209
:1013900003D3FFE7032005900EE1E6E71DE0FFF72A
:1013A000C3FA0390FFE743F67000C4F2020000683E
:1013B00000F002010020B0EB510F0DD0FFE7FFF766
:1013C000B3FA0399401A41F28931884203D3FFE707
:1013D00003200590F0E0E6E7FFE70198012809D136
:1013E000FFE743F64001C4F20201086820F0805094
:1013F0000860FFE7FFE704988069002800F0D980C3
:10140000FFE743F60800C4F20200006800F00C0099
:10141000082800F08D80FFE704988069022862D1D7
:10142000FFE743F60001C4F20201086820F0807073
:101430000860FFF779FA0390FFE743F60000C4F273
:101440000200006800F000710020B0EB516F0BD07B
:10145000FFE7FFF769FA0399401A032803D3FFE770
:1014600003200590A8E0E8E70499C869D1F820C0F6
:101470004B6A8A6A40EA0C0040EA8310D2034FF6B6
:10148000FF739A43A2F580321043C96A40EA0160B3
:1014900040F0005043F60401C4F20201086043F634
:1014A0000001C4F20201086840F080700860FFF794
:1014B0003BFA0390FFE743F60000C4F20200006825
:1014C00000F000710020B0EB516F0BD1FFE7FFF788
:1014D0002BFA0399401A032803D3FFE70320059052
:1014E0006AE0E8E723E043F60001C4F2020108687D
:1014F00020F080700860FFF717FA0390FFE743F6CB
:101500000000C4F20200006800F000710020B0EB9F
:10151000516F0BD0FFE7FFF707FA0399401A032832
:1015200003D3FFE70320059046E0E8E7FFE73FE04D
:1015300043F60400C4F20200006802900498806937
:10154000012831D0FFE7029800F480000499C969AE
:10155000884229D1FFE7029800F03F000499096A08
:10156000884221D1FFE7029847F6C07108400499EC
:10157000496AB0EB811F17D1FFE7029800F44030B1
:101580000499896AC9034FF6FF729143A1F580312E
:10159000884209D1FFE7029800F070600499C96A97
:1015A000B0EB016F03D0FFE70120059004E0FFE7F7
:1015B000FFE700200590FFE7059806B080BD00001A
:1015C00080B584B0FFF748FA01218DF800104FF084
:1015D0000050019012208DF8080003208DF80B00B8
:1015E00000208DF80F008DF80E108DF80D008DF88D
:1015F00001008DF80A008DF809008DF80C0068468E
:10160000FFF7DAF90420FFF73BFA04B080BD0000D1
:1016100080B592B0012001904FF4803002900020FC
:101620000490022007904FF480010891192109913C
:101630004FF4D8710A910B9009200C9001A8FFF784
:1016400047FC18B1FFE7FEF7FBFEFFE7FFF73CFAA8
:1016500018B1FFE7FEF7F4FEFFE70F200D90022020
:101660000E9000200F904FF4A05010904FF4805037
:1016700011900DA80721FFF787FA18B1FFE7FEF7D1
:10168000DFFEFFE712B080BD4EF68851CEF20001BA
:10169000086840F470000860704700000000000017
:1016A00083B00290029800F0070000904EF60C51B3
:1016B000CEF200010868019001984FF6FF02104039
:1016C00001900198009A40EA02200022C0F2FA52EA
:1016D000104301900198086003B0704700000000BB
:1016E00080B582B000200190FFF76AFFFFF744F950
:1016F000FEF7AAFEFFF78CFFFFE700F001F8FCE71A
:1017000080B540F20040C4F202000221FFF7E0F889
:1017100001280AD1FFE741F20000C4F202004FF4B1
:1017200080510122FFF7E8F813E040F20040C4F2D4
:1017300002000221FFF7CCF850B9FFE741F20000A8
:10174000C4F202004FF480510022FFF7D5F8FFE702
:10175000FFE780BDF1EE100A4FF6FF71C0F2C03115
:1017600020EA010040F04070E1EE100A70470000EE
:101770000000000000000102030406070809000041
:10178000A017000800000120080000002C0200083B
:10179000A817000808000120680600004C02000895
:0817A0000024F4001000000019
:04000005080001C925
:00000001FF
